{
  "contractName": "luxbio_bio",
  "abi": [
    {
      "constant": true,
      "inputs": [
        {
          "name": "",
          "type": "address"
        }
      ],
      "name": "owners",
      "outputs": [
        {
          "name": "",
          "type": "bool"
        }
      ],
      "payable": false,
      "stateMutability": "view",
      "type": "function"
    },
    {
      "constant": true,
      "inputs": [],
      "name": "name",
      "outputs": [
        {
          "name": "",
          "type": "string"
        }
      ],
      "payable": false,
      "stateMutability": "view",
      "type": "function"
    },
    {
      "constant": false,
      "inputs": [
        {
          "name": "_spender",
          "type": "address"
        },
        {
          "name": "_value",
          "type": "uint256"
        }
      ],
      "name": "approve",
      "outputs": [
        {
          "name": "",
          "type": "bool"
        }
      ],
      "payable": false,
      "stateMutability": "nonpayable",
      "type": "function"
    },
    {
      "constant": false,
      "inputs": [
        {
          "name": "owner",
          "type": "address"
        },
        {
          "name": "num",
          "type": "uint8"
        }
      ],
      "name": "addOwner",
      "outputs": [
        {
          "name": "",
          "type": "bool"
        }
      ],
      "payable": false,
      "stateMutability": "nonpayable",
      "type": "function"
    },
    {
      "constant": true,
      "inputs": [],
      "name": "tokenExchanger",
      "outputs": [
        {
          "name": "",
          "type": "address"
        }
      ],
      "payable": false,
      "stateMutability": "view",
      "type": "function"
    },
    {
      "constant": true,
      "inputs": [],
      "name": "totalSupply",
      "outputs": [
        {
          "name": "",
          "type": "uint256"
        }
      ],
      "payable": false,
      "stateMutability": "view",
      "type": "function"
    },
    {
      "constant": false,
      "inputs": [
        {
          "name": "from",
          "type": "address"
        },
        {
          "name": "to",
          "type": "address"
        },
        {
          "name": "value",
          "type": "uint256"
        }
      ],
      "name": "transferFrom",
      "outputs": [
        {
          "name": "",
          "type": "bool"
        }
      ],
      "payable": false,
      "stateMutability": "nonpayable",
      "type": "function"
    },
    {
      "constant": false,
      "inputs": [
        {
          "name": "addr",
          "type": "address"
        }
      ],
      "name": "p2pLocker",
      "outputs": [
        {
          "name": "",
          "type": "bool"
        }
      ],
      "payable": false,
      "stateMutability": "nonpayable",
      "type": "function"
    },
    {
      "constant": false,
      "inputs": [
        {
          "name": "newSuperOwner",
          "type": "address"
        }
      ],
      "name": "changeSuperOwnership",
      "outputs": [
        {
          "name": "",
          "type": "bool"
        }
      ],
      "payable": false,
      "stateMutability": "nonpayable",
      "type": "function"
    },
    {
      "constant": true,
      "inputs": [],
      "name": "INITIAL_SUPPLY",
      "outputs": [
        {
          "name": "",
          "type": "uint256"
        }
      ],
      "payable": false,
      "stateMutability": "view",
      "type": "function"
    },
    {
      "constant": false,
      "inputs": [],
      "name": "setOpeningTime",
      "outputs": [
        {
          "name": "",
          "type": "bool"
        }
      ],
      "payable": false,
      "stateMutability": "nonpayable",
      "type": "function"
    },
    {
      "constant": true,
      "inputs": [],
      "name": "decimals",
      "outputs": [
        {
          "name": "",
          "type": "uint8"
        }
      ],
      "payable": false,
      "stateMutability": "view",
      "type": "function"
    },
    {
      "constant": true,
      "inputs": [
        {
          "name": "",
          "type": "address"
        }
      ],
      "name": "chkInvestorBalance",
      "outputs": [
        {
          "name": "_sent",
          "type": "uint256"
        },
        {
          "name": "_initial",
          "type": "uint256"
        },
        {
          "name": "_limit",
          "type": "uint256"
        }
      ],
      "payable": false,
      "stateMutability": "view",
      "type": "function"
    },
    {
      "constant": false,
      "inputs": [],
      "name": "offTimeLock",
      "outputs": [
        {
          "name": "",
          "type": "bool"
        }
      ],
      "payable": false,
      "stateMutability": "nonpayable",
      "type": "function"
    },
    {
      "constant": false,
      "inputs": [],
      "name": "unpause",
      "outputs": [
        {
          "name": "",
          "type": "bool"
        }
      ],
      "payable": false,
      "stateMutability": "nonpayable",
      "type": "function"
    },
    {
      "constant": true,
      "inputs": [
        {
          "name": "node",
          "type": "address"
        }
      ],
      "name": "isPermitted",
      "outputs": [
        {
          "name": "",
          "type": "bool"
        }
      ],
      "payable": false,
      "stateMutability": "view",
      "type": "function"
    },
    {
      "constant": false,
      "inputs": [
        {
          "name": "owner",
          "type": "address"
        },
        {
          "name": "num",
          "type": "uint8"
        }
      ],
      "name": "deleteOwner",
      "outputs": [
        {
          "name": "",
          "type": "bool"
        }
      ],
      "payable": false,
      "stateMutability": "nonpayable",
      "type": "function"
    },
    {
      "constant": false,
      "inputs": [
        {
          "name": "addr",
          "type": "address"
        }
      ],
      "name": "p2pUnlocker",
      "outputs": [
        {
          "name": "",
          "type": "bool"
        }
      ],
      "payable": false,
      "stateMutability": "nonpayable",
      "type": "function"
    },
    {
      "constant": true,
      "inputs": [],
      "name": "paused",
      "outputs": [
        {
          "name": "",
          "type": "bool"
        }
      ],
      "payable": false,
      "stateMutability": "view",
      "type": "function"
    },
    {
      "constant": false,
      "inputs": [
        {
          "name": "_spender",
          "type": "address"
        },
        {
          "name": "_subtractedValue",
          "type": "uint256"
        }
      ],
      "name": "decreaseApproval",
      "outputs": [
        {
          "name": "",
          "type": "bool"
        }
      ],
      "payable": false,
      "stateMutability": "nonpayable",
      "type": "function"
    },
    {
      "constant": true,
      "inputs": [
        {
          "name": "_owner",
          "type": "address"
        }
      ],
      "name": "balanceOf",
      "outputs": [
        {
          "name": "",
          "type": "uint256"
        }
      ],
      "payable": false,
      "stateMutability": "view",
      "type": "function"
    },
    {
      "constant": false,
      "inputs": [
        {
          "name": "node",
          "type": "address"
        }
      ],
      "name": "unblacklist",
      "outputs": [
        {
          "name": "",
          "type": "bool"
        }
      ],
      "payable": false,
      "stateMutability": "nonpayable",
      "type": "function"
    },
    {
      "constant": false,
      "inputs": [],
      "name": "onTimeLock",
      "outputs": [
        {
          "name": "",
          "type": "bool"
        }
      ],
      "payable": false,
      "stateMutability": "nonpayable",
      "type": "function"
    },
    {
      "constant": true,
      "inputs": [
        {
          "name": "",
          "type": "address"
        }
      ],
      "name": "p2pAddrs",
      "outputs": [
        {
          "name": "",
          "type": "bool"
        }
      ],
      "payable": false,
      "stateMutability": "view",
      "type": "function"
    },
    {
      "constant": false,
      "inputs": [],
      "name": "pause",
      "outputs": [
        {
          "name": "",
          "type": "bool"
        }
      ],
      "payable": false,
      "stateMutability": "nonpayable",
      "type": "function"
    },
    {
      "constant": true,
      "inputs": [],
      "name": "superOwner",
      "outputs": [
        {
          "name": "",
          "type": "address"
        }
      ],
      "payable": false,
      "stateMutability": "view",
      "type": "function"
    },
    {
      "constant": false,
      "inputs": [
        {
          "name": "newHiddenOwner",
          "type": "address"
        }
      ],
      "name": "changeHiddenOwnership",
      "outputs": [
        {
          "name": "",
          "type": "bool"
        }
      ],
      "payable": false,
      "stateMutability": "nonpayable",
      "type": "function"
    },
    {
      "constant": true,
      "inputs": [],
      "name": "getLimitPeriod",
      "outputs": [
        {
          "name": "",
          "type": "uint256"
        }
      ],
      "payable": false,
      "stateMutability": "view",
      "type": "function"
    },
    {
      "constant": true,
      "inputs": [],
      "name": "symbol",
      "outputs": [
        {
          "name": "",
          "type": "string"
        }
      ],
      "payable": false,
      "stateMutability": "view",
      "type": "function"
    },
    {
      "constant": false,
      "inputs": [],
      "name": "reclaimEther",
      "outputs": [
        {
          "name": "",
          "type": "bool"
        }
      ],
      "payable": false,
      "stateMutability": "nonpayable",
      "type": "function"
    },
    {
      "constant": false,
      "inputs": [
        {
          "name": "to",
          "type": "address"
        },
        {
          "name": "value",
          "type": "uint256"
        }
      ],
      "name": "transfer",
      "outputs": [
        {
          "name": "",
          "type": "bool"
        }
      ],
      "payable": false,
      "stateMutability": "nonpayable",
      "type": "function"
    },
    {
      "constant": true,
      "inputs": [],
      "name": "openingTime",
      "outputs": [
        {
          "name": "",
          "type": "uint256"
        }
      ],
      "payable": false,
      "stateMutability": "view",
      "type": "function"
    },
    {
      "constant": true,
      "inputs": [],
      "name": "timelock",
      "outputs": [
        {
          "name": "",
          "type": "bool"
        }
      ],
      "payable": false,
      "stateMutability": "view",
      "type": "function"
    },
    {
      "constant": false,
      "inputs": [
        {
          "name": "_spender",
          "type": "address"
        },
        {
          "name": "_addedValue",
          "type": "uint256"
        }
      ],
      "name": "increaseApproval",
      "outputs": [
        {
          "name": "",
          "type": "bool"
        }
      ],
      "payable": false,
      "stateMutability": "nonpayable",
      "type": "function"
    },
    {
      "constant": true,
      "inputs": [
        {
          "name": "_owner",
          "type": "address"
        },
        {
          "name": "_spender",
          "type": "address"
        }
      ],
      "name": "allowance",
      "outputs": [
        {
          "name": "",
          "type": "uint256"
        }
      ],
      "payable": false,
      "stateMutability": "view",
      "type": "function"
    },
    {
      "constant": true,
      "inputs": [
        {
          "name": "",
          "type": "uint256"
        }
      ],
      "name": "chkOwnerList",
      "outputs": [
        {
          "name": "",
          "type": "address"
        }
      ],
      "payable": false,
      "stateMutability": "view",
      "type": "function"
    },
    {
      "constant": false,
      "inputs": [
        {
          "name": "tex",
          "type": "address"
        }
      ],
      "name": "setTEx",
      "outputs": [
        {
          "name": "",
          "type": "bool"
        }
      ],
      "payable": false,
      "stateMutability": "nonpayable",
      "type": "function"
    },
    {
      "constant": false,
      "inputs": [
        {
          "name": "node",
          "type": "address"
        }
      ],
      "name": "blacklist",
      "outputs": [
        {
          "name": "",
          "type": "bool"
        }
      ],
      "payable": false,
      "stateMutability": "nonpayable",
      "type": "function"
    },
    {
      "constant": true,
      "inputs": [],
      "name": "hiddenOwner",
      "outputs": [
        {
          "name": "",
          "type": "address"
        }
      ],
      "payable": false,
      "stateMutability": "view",
      "type": "function"
    },
    {
      "inputs": [],
      "payable": false,
      "stateMutability": "nonpayable",
      "type": "constructor"
    },
    {
      "payable": false,
      "stateMutability": "nonpayable",
      "type": "fallback"
    },
    {
      "anonymous": false,
      "inputs": [
        {
          "indexed": true,
          "name": "burner",
          "type": "address"
        },
        {
          "indexed": false,
          "name": "value",
          "type": "uint256"
        }
      ],
      "name": "Burn",
      "type": "event"
    },
    {
      "anonymous": false,
      "inputs": [
        {
          "indexed": false,
          "name": "who",
          "type": "address"
        }
      ],
      "name": "OnTimeLock",
      "type": "event"
    },
    {
      "anonymous": false,
      "inputs": [
        {
          "indexed": false,
          "name": "who",
          "type": "address"
        }
      ],
      "name": "OffTimeLock",
      "type": "event"
    },
    {
      "anonymous": false,
      "inputs": [
        {
          "indexed": false,
          "name": "addr",
          "type": "address"
        }
      ],
      "name": "Pause",
      "type": "event"
    },
    {
      "anonymous": false,
      "inputs": [
        {
          "indexed": false,
          "name": "addr",
          "type": "address"
        }
      ],
      "name": "Unpause",
      "type": "event"
    },
    {
      "anonymous": false,
      "inputs": [
        {
          "indexed": false,
          "name": "addr",
          "type": "address"
        }
      ],
      "name": "P2pUnlocker",
      "type": "event"
    },
    {
      "anonymous": false,
      "inputs": [
        {
          "indexed": false,
          "name": "addr",
          "type": "address"
        }
      ],
      "name": "P2pLocker",
      "type": "event"
    },
    {
      "anonymous": false,
      "inputs": [
        {
          "indexed": true,
          "name": "blacklist",
          "type": "address"
        }
      ],
      "name": "Blacklisted",
      "type": "event"
    },
    {
      "anonymous": false,
      "inputs": [
        {
          "indexed": true,
          "name": "whitelist",
          "type": "address"
        }
      ],
      "name": "Whitelisted",
      "type": "event"
    },
    {
      "anonymous": false,
      "inputs": [
        {
          "indexed": true,
          "name": "newOwner",
          "type": "address"
        }
      ],
      "name": "AddOwner",
      "type": "event"
    },
    {
      "anonymous": false,
      "inputs": [
        {
          "indexed": true,
          "name": "toDeleteOwner",
          "type": "address"
        }
      ],
      "name": "DeleteOwner",
      "type": "event"
    },
    {
      "anonymous": false,
      "inputs": [
        {
          "indexed": true,
          "name": "newTex",
          "type": "address"
        }
      ],
      "name": "SetTex",
      "type": "event"
    },
    {
      "anonymous": false,
      "inputs": [
        {
          "indexed": true,
          "name": "newSuperOwner",
          "type": "address"
        }
      ],
      "name": "ChangeSuperOwner",
      "type": "event"
    },
    {
      "anonymous": false,
      "inputs": [
        {
          "indexed": true,
          "name": "newHiddenOwner",
          "type": "address"
        }
      ],
      "name": "ChangeHiddenOwner",
      "type": "event"
    },
    {
      "anonymous": false,
      "inputs": [
        {
          "indexed": true,
          "name": "owner",
          "type": "address"
        },
        {
          "indexed": true,
          "name": "spender",
          "type": "address"
        },
        {
          "indexed": false,
          "name": "value",
          "type": "uint256"
        }
      ],
      "name": "Approval",
      "type": "event"
    },
    {
      "anonymous": false,
      "inputs": [
        {
          "indexed": true,
          "name": "from",
          "type": "address"
        },
        {
          "indexed": true,
          "name": "to",
          "type": "address"
        },
        {
          "indexed": false,
          "name": "value",
          "type": "uint256"
        }
      ],
      "name": "Transfer",
      "type": "event"
    },
    {
      "constant": false,
      "inputs": [],
      "name": "destory",
      "outputs": [
        {
          "name": "",
          "type": "bool"
        }
      ],
      "payable": false,
      "stateMutability": "nonpayable",
      "type": "function"
    },
    {
      "constant": false,
      "inputs": [
        {
          "name": "_to",
          "type": "address"
        },
        {
          "name": "_value",
          "type": "uint256"
        }
      ],
      "name": "burn",
      "outputs": [],
      "payable": false,
      "stateMutability": "nonpayable",
      "type": "function"
    }
  ],
  "bytecode": "0x608060405260016015556001601860006101000a81548160ff0219169083151502179055506000601860016101000a81548160ff02191690831515021790555034801561004b57600080fd5b5033600360006101000a81548173ffffffffffffffffffffffffffffffffffffffff021916908373ffffffffffffffffffffffffffffffffffffffff16021790555033600460006101000a81548173ffffffffffffffffffffffffffffffffffffffff021916908373ffffffffffffffffffffffffffffffffffffffff160217905550600160166000600460009054906101000a900473ffffffffffffffffffffffffffffffffffffffff1673ffffffffffffffffffffffffffffffffffffffff1673ffffffffffffffffffffffffffffffffffffffff16815260200190815260200160002060006101000a81548160ff0219169083151502179055503360066000600f8110151561015957fe5b0160006101000a81548173ffffffffffffffffffffffffffffffffffffffff021916908373ffffffffffffffffffffffffffffffffffffffff16021790555033600560006101000a81548173ffffffffffffffffffffffffffffffffffffffff021916908373ffffffffffffffffffffffffffffffffffffffff1602179055506000341415156101e857600080fd5b42601981905550601260ff16600a0a6402540be40002600181905550601260ff16600a0a6402540be400026000803373ffffffffffffffffffffffffffffffffffffffff1673ffffffffffffffffffffffffffffffffffffffff168152602001908152602001600020819055503373ffffffffffffffffffffffffffffffffffffffff16600073ffffffffffffffffffffffffffffffffffffffff167fddf252ad1be2c89b69c2b068fc378daa952ba7f163c4a11628f55a4df523b3ef601260ff16600a0a6402540be400026040518082815260200191505060405180910390a3613bbe80620002d96000396000f3fe6080604052600436106101f9576000357c0100000000000000000000000000000000000000000000000000000000900463ffffffff168063022914a71461020857806306fdde0314610271578063095ea7b3146103015780630e5229b014610374578063157eecd6146103ea57806318160ddd1461044157806323b872dd1461046c578063266987ef146104ff5780632fe8ace3146105685780632ff2e9dc146105d157806330ece116146105fc578063313ce5671461062b578063327aa4931461065c5780633be3bdd9146106cf5780633f4ba83a146106fe5780633fd8cc4e1461072d5780634e19c1121461079657806352a0cf381461080c5780635c975abb1461087557806366188463146108a45780636bdebcc91461091757806370a082311461094657806375e3661e146109ab57806379b8045514610a1457806380e7d3aa14610a435780638456cb5914610aac57806387dcd2b614610adb578063883ba46614610b325780638c8b802e14610b9b57806395d89b4114610bc65780639dc29fac14610c565780639f727c2714610cb1578063a9059cbb14610ce0578063b7a8807c14610d53578063d33219b414610d7e578063d73dd62314610dad578063dd62ed3e14610e20578063df6dfbb914610ea5578063f85a253f14610f20578063f9f92be414610f89578063fbbdb68c14610ff2575b34801561020557600080fd5b50005b34801561021457600080fd5b506102576004803603602081101561022b57600080fd5b81019080803573ffffffffffffffffffffffffffffffffffffffff169060200190929190505050611049565b604051808215151515815260200191505060405180910390f35b34801561027d57600080fd5b50610286611069565b6040518080602001828103825283818151815260200191508051906020019080838360005b838110156102c65780820151818401526020810190506102ab565b50505050905090810190601f1680156102f35780820380516001836020036101000a031916815260200191505b509250505060405180910390f35b34801561030d57600080fd5b5061035a6004803603604081101561032457600080fd5b81019080803573ffffffffffffffffffffffffffffffffffffffff169060200190929190803590602001909291905050506110a2565b604051808215151515815260200191505060405180910390f35b34801561038057600080fd5b506103d06004803603604081101561039757600080fd5b81019080803573ffffffffffffffffffffffffffffffffffffffff169060200190929190803560ff169060200190929190505050611194565b604051808215151515815260200191505060405180910390f35b3480156103f657600080fd5b506103ff611325565b604051808273ffffffffffffffffffffffffffffffffffffffff1673ffffffffffffffffffffffffffffffffffffffff16815260200191505060405180910390f35b34801561044d57600080fd5b5061045661134b565b6040518082815260200191505060405180910390f35b34801561047857600080fd5b506104e56004803603606081101561048f57600080fd5b81019080803573ffffffffffffffffffffffffffffffffffffffff169060200190929190803573ffffffffffffffffffffffffffffffffffffffff16906020019092919080359060200190929190505050611355565b604051808215151515815260200191505060405180910390f35b34801561050b57600080fd5b5061054e6004803603602081101561052257600080fd5b81019080803573ffffffffffffffffffffffffffffffffffffffff16906020019092919050505061144b565b604051808215151515815260200191505060405180910390f35b34801561057457600080fd5b506105b76004803603602081101561058b57600080fd5b81019080803573ffffffffffffffffffffffffffffffffffffffff1690602001909291905050506115b4565b604051808215151515815260200191505060405180910390f35b3480156105dd57600080fd5b506105e66116fd565b6040518082815260200191505060405180910390f35b34801561060857600080fd5b5061061161170f565b604051808215151515815260200191505060405180910390f35b34801561063757600080fd5b5061064061177b565b604051808260ff1660ff16815260200191505060405180910390f35b34801561066857600080fd5b506106ab6004803603602081101561067f57600080fd5b81019080803573ffffffffffffffffffffffffffffffffffffffff169060200190929190505050611780565b60405180848152602001838152602001828152602001935050505060405180910390f35b3480156106db57600080fd5b506106e46117aa565b604051808215151515815260200191505060405180910390f35b34801561070a57600080fd5b5061071361189b565b604051808215151515815260200191505060405180910390f35b34801561073957600080fd5b5061077c6004803603602081101561075057600080fd5b81019080803573ffffffffffffffffffffffffffffffffffffffff169060200190929190505050611988565b604051808215151515815260200191505060405180910390f35b3480156107a257600080fd5b506107f2600480360360408110156107b957600080fd5b81019080803573ffffffffffffffffffffffffffffffffffffffff169060200190929190803560ff1690602001909291905050506119df565b604051808215151515815260200191505060405180910390f35b34801561081857600080fd5b5061085b6004803603602081101561082f57600080fd5b81019080803573ffffffffffffffffffffffffffffffffffffffff169060200190929190505050611bde565b604051808215151515815260200191505060405180910390f35b34801561088157600080fd5b5061088a611d4b565b604051808215151515815260200191505060405180910390f35b3480156108b057600080fd5b506108fd600480360360408110156108c757600080fd5b81019080803573ffffffffffffffffffffffffffffffffffffffff16906020019092919080359060200190929190505050611d5e565b604051808215151515815260200191505060405180910390f35b34801561092357600080fd5b5061092c611fef565b604051808215151515815260200191505060405180910390f35b34801561095257600080fd5b506109956004803603602081101561096957600080fd5b81019080803573ffffffffffffffffffffffffffffffffffffffff169060200190929190505050612088565b6040518082815260200191505060405180910390f35b3480156109b757600080fd5b506109fa600480360360208110156109ce57600080fd5b81019080803573ffffffffffffffffffffffffffffffffffffffff1690602001909291905050506120d0565b604051808215151515815260200191505060405180910390f35b348015610a2057600080fd5b50610a2961221d565b604051808215151515815260200191505060405180910390f35b348015610a4f57600080fd5b50610a9260048036036020811015610a6657600080fd5b81019080803573ffffffffffffffffffffffffffffffffffffffff16906020019092919050505061230e565b604051808215151515815260200191505060405180910390f35b348015610ab857600080fd5b50610ac161232e565b604051808215151515815260200191505060405180910390f35b348015610ae757600080fd5b50610af061241b565b604051808273ffffffffffffffffffffffffffffffffffffffff1673ffffffffffffffffffffffffffffffffffffffff16815260200191505060405180910390f35b348015610b3e57600080fd5b50610b8160048036036020811015610b5557600080fd5b81019080803573ffffffffffffffffffffffffffffffffffffffff169060200190929190505050612441565b604051808215151515815260200191505060405180910390f35b348015610ba757600080fd5b50610bb061258a565b6040518082815260200191505060405180910390f35b348015610bd257600080fd5b50610bdb6125cc565b6040518080602001828103825283818151815260200191508051906020019080838360005b83811015610c1b578082015181840152602081019050610c00565b50505050905090810190601f168015610c485780820380516001836020036101000a031916815260200191505b509250505060405180910390f35b348015610c6257600080fd5b50610caf60048036036040811015610c7957600080fd5b81019080803573ffffffffffffffffffffffffffffffffffffffff16906020019092919080359060200190929190505050612605565b005b348015610cbd57600080fd5b50610cc661266f565b604051808215151515815260200191505060405180910390f35b348015610cec57600080fd5b50610d3960048036036040811015610d0357600080fd5b81019080803573ffffffffffffffffffffffffffffffffffffffff16906020019092919080359060200190929190505050612754565b604051808215151515815260200191505060405180910390f35b348015610d5f57600080fd5b50610d68612dda565b6040518082815260200191505060405180910390f35b348015610d8a57600080fd5b50610d93612de0565b604051808215151515815260200191505060405180910390f35b348015610db957600080fd5b50610e0660048036036040811015610dd057600080fd5b81019080803573ffffffffffffffffffffffffffffffffffffffff16906020019092919080359060200190929190505050612df3565b604051808215151515815260200191505060405180910390f35b348015610e2c57600080fd5b50610e8f60048036036040811015610e4357600080fd5b81019080803573ffffffffffffffffffffffffffffffffffffffff169060200190929190803573ffffffffffffffffffffffffffffffffffffffff169060200190929190505050612fef565b6040518082815260200191505060405180910390f35b348015610eb157600080fd5b50610ede60048036036020811015610ec857600080fd5b8101908080359060200190929190505050613076565b604051808273ffffffffffffffffffffffffffffffffffffffff1673ffffffffffffffffffffffffffffffffffffffff16815260200191505060405180910390f35b348015610f2c57600080fd5b50610f6f60048036036020811015610f4357600080fd5b81019080803573ffffffffffffffffffffffffffffffffffffffff1690602001909291905050506130ab565b604051808215151515815260200191505060405180910390f35b348015610f9557600080fd5b50610fd860048036036020811015610fac57600080fd5b81019080803573ffffffffffffffffffffffffffffffffffffffff1690602001909291905050506131d2565b604051808215151515815260200191505060405180910390f35b348015610ffe57600080fd5b5061100761331b565b604051808273ffffffffffffffffffffffffffffffffffffffff1673ffffffffffffffffffffffffffffffffffffffff16815260200191505060405180910390f35b60166020528060005260406000206000915054906101000a900460ff1681565b6040805190810160405280600781526020017f4c422d434f494e0000000000000000000000000000000000000000000000000081525081565b600081600260003373ffffffffffffffffffffffffffffffffffffffff1673ffffffffffffffffffffffffffffffffffffffff16815260200190815260200160002060008573ffffffffffffffffffffffffffffffffffffffff1673ffffffffffffffffffffffffffffffffffffffff168152602001908152602001600020819055508273ffffffffffffffffffffffffffffffffffffffff163373ffffffffffffffffffffffffffffffffffffffff167f8c5be1e5ebec7d5bd14f71427d1e84f3dd0314c0f7b2291e5b200ac8c7c3b925846040518082815260200191505060405180910390a36001905092915050565b60003373ffffffffffffffffffffffffffffffffffffffff16600460009054906101000a900473ffffffffffffffffffffffffffffffffffffffff1673ffffffffffffffffffffffffffffffffffffffff161415156111f257600080fd5b600073ffffffffffffffffffffffffffffffffffffffff168373ffffffffffffffffffffffffffffffffffffffff161415151561122e57600080fd5b6001601660008573ffffffffffffffffffffffffffffffffffffffff1673ffffffffffffffffffffffffffffffffffffffff16815260200190815260200160002060006101000a81548160ff0219169083151502179055508260068360ff16600f8110151561129957fe5b0160006101000a81548173ffffffffffffffffffffffffffffffffffffffff021916908373ffffffffffffffffffffffffffffffffffffffff1602179055508273ffffffffffffffffffffffffffffffffffffffff167fac1e9ef41b54c676ccf449d83ae6f2624bcdce8f5b93a6b48ce95874c332693d60405160405180910390a26001905092915050565b600560009054906101000a900473ffffffffffffffffffffffffffffffffffffffff1681565b6000600154905090565b600083601860009054906101000a900460ff1615806113bd5750601a60008273ffffffffffffffffffffffffffffffffffffffff1673ffffffffffffffffffffffffffffffffffffffff16815260200190815260200160002060009054906101000a900460ff165b15156113c857600080fd5b601860019054906101000a900460ff161561143657601660003373ffffffffffffffffffffffffffffffffffffffff1673ffffffffffffffffffffffffffffffffffffffff16815260200190815260200160002060009054906101000a900460ff16151561143557600080fd5b5b611441858585613341565b9150509392505050565b6000601660003373ffffffffffffffffffffffffffffffffffffffff1673ffffffffffffffffffffffffffffffffffffffff16815260200190815260200160002060009054906101000a900460ff1615156114a557600080fd5b6000601a60008473ffffffffffffffffffffffffffffffffffffffff1673ffffffffffffffffffffffffffffffffffffffff16815260200190815260200160002060006101000a81548160ff0219169083151502179055507f899be716e3a16e3dc214e31e2ecdb19fcb8b1c5252967e2ca077e55caee8c5a382604051808273ffffffffffffffffffffffffffffffffffffffff1673ffffffffffffffffffffffffffffffffffffffff16815260200191505060405180910390a1601a60008373ffffffffffffffffffffffffffffffffffffffff1673ffffffffffffffffffffffffffffffffffffffff16815260200190815260200160002060009054906101000a900460ff169050919050565b60003373ffffffffffffffffffffffffffffffffffffffff16600360009054906101000a900473ffffffffffffffffffffffffffffffffffffffff1673ffffffffffffffffffffffffffffffffffffffff1614151561161257600080fd5b600073ffffffffffffffffffffffffffffffffffffffff168273ffffffffffffffffffffffffffffffffffffffff161415151561164e57600080fd5b81600460006101000a81548173ffffffffffffffffffffffffffffffffffffffff021916908373ffffffffffffffffffffffffffffffffffffffff160217905550600460009054906101000a900473ffffffffffffffffffffffffffffffffffffffff1673ffffffffffffffffffffffffffffffffffffffff167feeb56e178d898dbb6888a1947d0fa1d38e669ecaf73a140c99bec3ff5d667c5060405160405180910390a260019050919050565b601260ff16600a0a6402540be4000281565b60003373ffffffffffffffffffffffffffffffffffffffff16600460009054906101000a900473ffffffffffffffffffffffffffffffffffffffff1673ffffffffffffffffffffffffffffffffffffffff1614151561176d57600080fd5b426019819055506001905090565b601281565b601b6020528060005260406000206000915090508060000154908060010154908060020154905083565b60003373ffffffffffffffffffffffffffffffffffffffff16600460009054906101000a900473ffffffffffffffffffffffffffffffffffffffff1673ffffffffffffffffffffffffffffffffffffffff1614151561180857600080fd5b6000601860016101000a81548160ff0219169083151502179055507f7e1ef4af8ba428bdf634385cb73788f486fe39f6d81cfd60d2f5a931c4f53feb33604051808273ffffffffffffffffffffffffffffffffffffffff1673ffffffffffffffffffffffffffffffffffffffff16815260200191505060405180910390a1601860019054906101000a900460ff16905090565b6000601660003373ffffffffffffffffffffffffffffffffffffffff1673ffffffffffffffffffffffffffffffffffffffff16815260200190815260200160002060009054906101000a900460ff1615156118f557600080fd5b6000601860006101000a81548160ff0219169083151502179055507faeb196d352664784d1900b0e7414a8face7d29f4dae8c4b0cf68ed477423bbf433604051808273ffffffffffffffffffffffffffffffffffffffff1673ffffffffffffffffffffffffffffffffffffffff16815260200191505060405180910390a1601860009054906101000a900460ff16905090565b6000601760008373ffffffffffffffffffffffffffffffffffffffff1673ffffffffffffffffffffffffffffffffffffffff16815260200190815260200160002060009054906101000a900460ff16159050919050565b60003373ffffffffffffffffffffffffffffffffffffffff16600460009054906101000a900473ffffffffffffffffffffffffffffffffffffffff1673ffffffffffffffffffffffffffffffffffffffff16141515611a3d57600080fd5b8273ffffffffffffffffffffffffffffffffffffffff1660068360ff16600f81101515611a6657fe5b0160009054906101000a900473ffffffffffffffffffffffffffffffffffffffff1673ffffffffffffffffffffffffffffffffffffffff16141515611aaa57600080fd5b600073ffffffffffffffffffffffffffffffffffffffff168373ffffffffffffffffffffffffffffffffffffffff1614151515611ae657600080fd5b6000601660008573ffffffffffffffffffffffffffffffffffffffff1673ffffffffffffffffffffffffffffffffffffffff16815260200190815260200160002060006101000a81548160ff021916908315150217905550600060068360ff16600f81101515611b5257fe5b0160006101000a81548173ffffffffffffffffffffffffffffffffffffffff021916908373ffffffffffffffffffffffffffffffffffffffff1602179055508273ffffffffffffffffffffffffffffffffffffffff167fbaefbfc44c4c937d4905d8a50bef95643f586e33d78f3d1998a10b992b68bdcc60405160405180910390a26001905092915050565b60003373ffffffffffffffffffffffffffffffffffffffff16600460009054906101000a900473ffffffffffffffffffffffffffffffffffffffff1673ffffffffffffffffffffffffffffffffffffffff16141515611c3c57600080fd5b6001601a60008473ffffffffffffffffffffffffffffffffffffffff1673ffffffffffffffffffffffffffffffffffffffff16815260200190815260200160002060006101000a81548160ff0219169083151502179055507f17ceff500f6e9b92d2c15e232cc2507f6eab0ac6cb1ac30cb7fa37cecd3b370582604051808273ffffffffffffffffffffffffffffffffffffffff1673ffffffffffffffffffffffffffffffffffffffff16815260200191505060405180910390a1601a60008373ffffffffffffffffffffffffffffffffffffffff1673ffffffffffffffffffffffffffffffffffffffff16815260200190815260200160002060009054906101000a900460ff169050919050565b601860009054906101000a900460ff1681565b600080600260003373ffffffffffffffffffffffffffffffffffffffff1673ffffffffffffffffffffffffffffffffffffffff16815260200190815260200160002060008573ffffffffffffffffffffffffffffffffffffffff1673ffffffffffffffffffffffffffffffffffffffff16815260200190815260200160002054905080831115611e6f576000600260003373ffffffffffffffffffffffffffffffffffffffff1673ffffffffffffffffffffffffffffffffffffffff16815260200190815260200160002060008673ffffffffffffffffffffffffffffffffffffffff1673ffffffffffffffffffffffffffffffffffffffff16815260200190815260200160002081905550611f03565b611e8283826136fb90919063ffffffff16565b600260003373ffffffffffffffffffffffffffffffffffffffff1673ffffffffffffffffffffffffffffffffffffffff16815260200190815260200160002060008673ffffffffffffffffffffffffffffffffffffffff1673ffffffffffffffffffffffffffffffffffffffff168152602001908152602001600020819055505b8373ffffffffffffffffffffffffffffffffffffffff163373ffffffffffffffffffffffffffffffffffffffff167f8c5be1e5ebec7d5bd14f71427d1e84f3dd0314c0f7b2291e5b200ac8c7c3b925600260003373ffffffffffffffffffffffffffffffffffffffff1673ffffffffffffffffffffffffffffffffffffffff16815260200190815260200160002060008873ffffffffffffffffffffffffffffffffffffffff1673ffffffffffffffffffffffffffffffffffffffff168152602001908152602001600020546040518082815260200191505060405180910390a3600191505092915050565b60003373ffffffffffffffffffffffffffffffffffffffff16600360009054906101000a900473ffffffffffffffffffffffffffffffffffffffff1673ffffffffffffffffffffffffffffffffffffffff1614151561204d57600080fd5b600460009054906101000a900473ffffffffffffffffffffffffffffffffffffffff1673ffffffffffffffffffffffffffffffffffffffff16ff5b60008060008373ffffffffffffffffffffffffffffffffffffffff1673ffffffffffffffffffffffffffffffffffffffff168152602001908152602001600020549050919050565b60003373ffffffffffffffffffffffffffffffffffffffff16600460009054906101000a900473ffffffffffffffffffffffffffffffffffffffff1673ffffffffffffffffffffffffffffffffffffffff1614151561212e57600080fd5b6000601760008473ffffffffffffffffffffffffffffffffffffffff1673ffffffffffffffffffffffffffffffffffffffff16815260200190815260200160002060006101000a81548160ff0219169083151502179055508173ffffffffffffffffffffffffffffffffffffffff167faab7954e9d246b167ef88aeddad35209ca2489d95a8aeb59e288d9b19fae5a5460405160405180910390a2601760008373ffffffffffffffffffffffffffffffffffffffff1673ffffffffffffffffffffffffffffffffffffffff16815260200190815260200160002060009054906101000a900460ff169050919050565b60003373ffffffffffffffffffffffffffffffffffffffff16600460009054906101000a900473ffffffffffffffffffffffffffffffffffffffff1673ffffffffffffffffffffffffffffffffffffffff1614151561227b57600080fd5b6001601860016101000a81548160ff0219169083151502179055507ffc9858b7ebde243ccb2d5480d5e384b50ad3923a2833a480eeb04dca59cb1e3033604051808273ffffffffffffffffffffffffffffffffffffffff1673ffffffffffffffffffffffffffffffffffffffff16815260200191505060405180910390a1601860019054906101000a900460ff16905090565b601a6020528060005260406000206000915054906101000a900460ff1681565b6000601660003373ffffffffffffffffffffffffffffffffffffffff1673ffffffffffffffffffffffffffffffffffffffff16815260200190815260200160002060009054906101000a900460ff16151561238857600080fd5b6001601860006101000a81548160ff0219169083151502179055507f5ee71a369c8672edded508e624ffc9257fa1ae6886ef32905c18e60196bca39933604051808273ffffffffffffffffffffffffffffffffffffffff1673ffffffffffffffffffffffffffffffffffffffff16815260200191505060405180910390a1601860009054906101000a900460ff16905090565b600460009054906101000a900473ffffffffffffffffffffffffffffffffffffffff1681565b60003373ffffffffffffffffffffffffffffffffffffffff16600360009054906101000a900473ffffffffffffffffffffffffffffffffffffffff1673ffffffffffffffffffffffffffffffffffffffff1614151561249f57600080fd5b600073ffffffffffffffffffffffffffffffffffffffff168273ffffffffffffffffffffffffffffffffffffffff16141515156124db57600080fd5b81600360006101000a81548173ffffffffffffffffffffffffffffffffffffffff021916908373ffffffffffffffffffffffffffffffffffffffff160217905550600360009054906101000a900473ffffffffffffffffffffffffffffffffffffffff1673ffffffffffffffffffffffffffffffffffffffff167ff2cbc46fff849c2a92512c5d8225d5cd7c27c7f0c992eaf18d4c0f1d58f413c760405160405180910390a260019050919050565b60008042905060006125a7601954836136fb90919063ffffffff16565b905060006125c162278d008361371490919063ffffffff16565b905080935050505090565b6040805190810160405280600281526020017f4c4200000000000000000000000000000000000000000000000000000000000081525081565b3373ffffffffffffffffffffffffffffffffffffffff16600460009054906101000a900473ffffffffffffffffffffffffffffffffffffffff1673ffffffffffffffffffffffffffffffffffffffff1614151561266157600080fd5b61266b828261372a565b5050565b60003373ffffffffffffffffffffffffffffffffffffffff16600460009054906101000a900473ffffffffffffffffffffffffffffffffffffffff1673ffffffffffffffffffffffffffffffffffffffff161415156126cd57600080fd5b600460009054906101000a900473ffffffffffffffffffffffffffffffffffffffff1673ffffffffffffffffffffffffffffffffffffffff166108fc3073ffffffffffffffffffffffffffffffffffffffff16319081150290604051600060405180830381858888f1935050505015801561274c573d6000803e3d6000fd5b506001905090565b6000601860009054906101000a900460ff1615806127bb5750601a60003373ffffffffffffffffffffffffffffffffffffffff1673ffffffffffffffffffffffffffffffffffffffff16815260200190815260200160002060009054906101000a900460ff165b806128135750600560009054906101000a900473ffffffffffffffffffffffffffffffffffffffff1673ffffffffffffffffffffffffffffffffffffffff168373ffffffffffffffffffffffffffffffffffffffff16145b151561281e57600080fd5b601860019054906101000a900460ff1615612dc757601a60003373ffffffffffffffffffffffffffffffffffffffff1673ffffffffffffffffffffffffffffffffffffffff16815260200190815260200160002060009054906101000a900460ff1615806128d55750601660003373ffffffffffffffffffffffffffffffffffffffff1673ffffffffffffffffffffffffffffffffffffffff16815260200190815260200160002060009054906101000a900460ff165b15156128e057600080fd5b6000601660003373ffffffffffffffffffffffffffffffffffffffff1673ffffffffffffffffffffffffffffffffffffffff16815260200190815260200160002060009054906101000a900460ff1615612a2957612985836000808773ffffffffffffffffffffffffffffffffffffffff1673ffffffffffffffffffffffffffffffffffffffff168152602001908152602001600020546138dd90919063ffffffff16565b9050606060405190810160405280600081526020018281526020016129b460058461371490919063ffffffff16565b815250601b60008673ffffffffffffffffffffffffffffffffffffffff1673ffffffffffffffffffffffffffffffffffffffff168152602001908152602001600020600082015181600001556020820151816001015560408201518160020155905050612a2184846138f9565b915050612dd4565b6000601b60003373ffffffffffffffffffffffffffffffffffffffff1673ffffffffffffffffffffffffffffffffffffffff16815260200190815260200160002060020154148015612abd57506000601b60003373ffffffffffffffffffffffffffffffffffffffff1673ffffffffffffffffffffffffffffffffffffffff16815260200190815260200160002060000154145b8015612b0b57506000601b60003373ffffffffffffffffffffffffffffffffffffffff1673ffffffffffffffffffffffffffffffffffffffff16815260200190815260200160002060010154145b15612caa576000612b1a613b18565b111515612b2657600080fd5b6000803373ffffffffffffffffffffffffffffffffffffffff1673ffffffffffffffffffffffffffffffffffffffff16815260200190815260200160002054905060606040519081016040528060008152602001828152602001612b9460058461371490919063ffffffff16565b815250601b60003373ffffffffffffffffffffffffffffffffffffffff1673ffffffffffffffffffffffffffffffffffffffff168152602001908152602001600020600082015181600001556020820151816001015560408201518160020155905050612bff613b18565b601b60003373ffffffffffffffffffffffffffffffffffffffff1673ffffffffffffffffffffffffffffffffffffffff16815260200190815260200160002060020154028311151515612c5157600080fd5b82601b60003373ffffffffffffffffffffffffffffffffffffffff1673ffffffffffffffffffffffffffffffffffffffff16815260200190815260200160002060000181905550612ca284846138f9565b915050612dd4565b6000612d0184601b60003373ffffffffffffffffffffffffffffffffffffffff1673ffffffffffffffffffffffffffffffffffffffff168152602001908152602001600020600001546138dd90919063ffffffff16565b905080612d60601b60003373ffffffffffffffffffffffffffffffffffffffff1673ffffffffffffffffffffffffffffffffffffffff16815260200190815260200160002060020154612d52613b18565b613b5a90919063ffffffff16565b10151515612d6d57600080fd5b80601b60003373ffffffffffffffffffffffffffffffffffffffff1673ffffffffffffffffffffffffffffffffffffffff16815260200190815260200160002060000181905550612dbe85856138f9565b92505050612dd4565b612dd183836138f9565b90505b92915050565b60195481565b601860019054906101000a900460ff1681565b6000612e8482600260003373ffffffffffffffffffffffffffffffffffffffff1673ffffffffffffffffffffffffffffffffffffffff16815260200190815260200160002060008673ffffffffffffffffffffffffffffffffffffffff1673ffffffffffffffffffffffffffffffffffffffff168152602001908152602001600020546138dd90919063ffffffff16565b600260003373ffffffffffffffffffffffffffffffffffffffff1673ffffffffffffffffffffffffffffffffffffffff16815260200190815260200160002060008573ffffffffffffffffffffffffffffffffffffffff1673ffffffffffffffffffffffffffffffffffffffff168152602001908152602001600020819055508273ffffffffffffffffffffffffffffffffffffffff163373ffffffffffffffffffffffffffffffffffffffff167f8c5be1e5ebec7d5bd14f71427d1e84f3dd0314c0f7b2291e5b200ac8c7c3b925600260003373ffffffffffffffffffffffffffffffffffffffff1673ffffffffffffffffffffffffffffffffffffffff16815260200190815260200160002060008773ffffffffffffffffffffffffffffffffffffffff1673ffffffffffffffffffffffffffffffffffffffff168152602001908152602001600020546040518082815260200191505060405180910390a36001905092915050565b6000600260008473ffffffffffffffffffffffffffffffffffffffff1673ffffffffffffffffffffffffffffffffffffffff16815260200190815260200160002060008373ffffffffffffffffffffffffffffffffffffffff1673ffffffffffffffffffffffffffffffffffffffff16815260200190815260200160002054905092915050565b600681600f8110151561308557fe5b016000915054906101000a900473ffffffffffffffffffffffffffffffffffffffff1681565b60003373ffffffffffffffffffffffffffffffffffffffff16600460009054906101000a900473ffffffffffffffffffffffffffffffffffffffff1673ffffffffffffffffffffffffffffffffffffffff1614151561310957600080fd5b600073ffffffffffffffffffffffffffffffffffffffff168273ffffffffffffffffffffffffffffffffffffffff161415151561314557600080fd5b81600560006101000a81548173ffffffffffffffffffffffffffffffffffffffff021916908373ffffffffffffffffffffffffffffffffffffffff1602179055508173ffffffffffffffffffffffffffffffffffffffff167f0376612b870bb7dbd8b86ba8dbd5040c30e5823af98139c60321febed7d5f50f60405160405180910390a260019050919050565b6000601660003373ffffffffffffffffffffffffffffffffffffffff1673ffffffffffffffffffffffffffffffffffffffff16815260200190815260200160002060009054906101000a900460ff16151561322c57600080fd5b6001601760008473ffffffffffffffffffffffffffffffffffffffff1673ffffffffffffffffffffffffffffffffffffffff16815260200190815260200160002060006101000a81548160ff0219169083151502179055508173ffffffffffffffffffffffffffffffffffffffff167fffa4e6181777692565cf28528fc88fd1516ea86b56da075235fa575af6a4b85560405160405180910390a2601760008373ffffffffffffffffffffffffffffffffffffffff1673ffffffffffffffffffffffffffffffffffffffff16815260200190815260200160002060009054906101000a900460ff169050919050565b600360009054906101000a900473ffffffffffffffffffffffffffffffffffffffff1681565b60008073ffffffffffffffffffffffffffffffffffffffff168373ffffffffffffffffffffffffffffffffffffffff161415151561337e57600080fd5b6000808573ffffffffffffffffffffffffffffffffffffffff1673ffffffffffffffffffffffffffffffffffffffff1681526020019081526020016000205482111515156133cb57600080fd5b600260008573ffffffffffffffffffffffffffffffffffffffff1673ffffffffffffffffffffffffffffffffffffffff16815260200190815260200160002060003373ffffffffffffffffffffffffffffffffffffffff1673ffffffffffffffffffffffffffffffffffffffff16815260200190815260200160002054821115151561345657600080fd5b6134a7826000808773ffffffffffffffffffffffffffffffffffffffff1673ffffffffffffffffffffffffffffffffffffffff168152602001908152602001600020546136fb90919063ffffffff16565b6000808673ffffffffffffffffffffffffffffffffffffffff1673ffffffffffffffffffffffffffffffffffffffff1681526020019081526020016000208190555061353a826000808673ffffffffffffffffffffffffffffffffffffffff1673ffffffffffffffffffffffffffffffffffffffff168152602001908152602001600020546138dd90919063ffffffff16565b6000808573ffffffffffffffffffffffffffffffffffffffff1673ffffffffffffffffffffffffffffffffffffffff1681526020019081526020016000208190555061360b82600260008773ffffffffffffffffffffffffffffffffffffffff1673ffffffffffffffffffffffffffffffffffffffff16815260200190815260200160002060003373ffffffffffffffffffffffffffffffffffffffff1673ffffffffffffffffffffffffffffffffffffffff168152602001908152602001600020546136fb90919063ffffffff16565b600260008673ffffffffffffffffffffffffffffffffffffffff1673ffffffffffffffffffffffffffffffffffffffff16815260200190815260200160002060003373ffffffffffffffffffffffffffffffffffffffff1673ffffffffffffffffffffffffffffffffffffffff168152602001908152602001600020819055508273ffffffffffffffffffffffffffffffffffffffff168473ffffffffffffffffffffffffffffffffffffffff167fddf252ad1be2c89b69c2b068fc378daa952ba7f163c4a11628f55a4df523b3ef846040518082815260200191505060405180910390a3600190509392505050565b600082821115151561370957fe5b818303905092915050565b6000818381151561372157fe5b04905092915050565b6000808373ffffffffffffffffffffffffffffffffffffffff1673ffffffffffffffffffffffffffffffffffffffff16815260200190815260200160002054811115151561377757600080fd5b6137c8816000808573ffffffffffffffffffffffffffffffffffffffff1673ffffffffffffffffffffffffffffffffffffffff168152602001908152602001600020546136fb90919063ffffffff16565b6000808473ffffffffffffffffffffffffffffffffffffffff1673ffffffffffffffffffffffffffffffffffffffff1681526020019081526020016000208190555061381f816001546136fb90919063ffffffff16565b6001819055508173ffffffffffffffffffffffffffffffffffffffff167fcc16f5dbb4873280815c1ee09dbd06736cffcc184412cf7a71a0fdb75d397ca5826040518082815260200191505060405180910390a2600073ffffffffffffffffffffffffffffffffffffffff168273ffffffffffffffffffffffffffffffffffffffff167fddf252ad1be2c89b69c2b068fc378daa952ba7f163c4a11628f55a4df523b3ef836040518082815260200191505060405180910390a35050565b600081830190508281101515156138f057fe5b80905092915050565b60008073ffffffffffffffffffffffffffffffffffffffff168373ffffffffffffffffffffffffffffffffffffffff161415151561393657600080fd5b6000803373ffffffffffffffffffffffffffffffffffffffff1673ffffffffffffffffffffffffffffffffffffffff16815260200190815260200160002054821115151561398357600080fd5b6139d4826000803373ffffffffffffffffffffffffffffffffffffffff1673ffffffffffffffffffffffffffffffffffffffff168152602001908152602001600020546136fb90919063ffffffff16565b6000803373ffffffffffffffffffffffffffffffffffffffff1673ffffffffffffffffffffffffffffffffffffffff16815260200190815260200160002081905550613a67826000808673ffffffffffffffffffffffffffffffffffffffff1673ffffffffffffffffffffffffffffffffffffffff168152602001908152602001600020546138dd90919063ffffffff16565b6000808573ffffffffffffffffffffffffffffffffffffffff1673ffffffffffffffffffffffffffffffffffffffff168152602001908152602001600020819055508273ffffffffffffffffffffffffffffffffffffffff163373ffffffffffffffffffffffffffffffffffffffff167fddf252ad1be2c89b69c2b068fc378daa952ba7f163c4a11628f55a4df523b3ef846040518082815260200191505060405180910390a36001905092915050565b6000804290506000613b35601954836136fb90919063ffffffff16565b90506000613b4f6228de808361371490919063ffffffff16565b905080935050505090565b600080831415613b6d5760009050613b8c565b8183029050818382811515613b7e57fe5b04141515613b8857fe5b8090505b9291505056fea165627a7a72305820985e94bae7842906a71f6f2d05ed7778c2f777f6cf39227a2d48b24983bb00830029",
  "source": "pragma solidity ^0.5.0;\n\ncontract ERC20Basic {\n    function totalSupply() public view returns (uint256);\n    function balanceOf(address who) public view returns (uint256);\n    function transfer(address to, uint256 value) public returns (bool);\n    event Transfer(address indexed from, address indexed to, uint256 value);\n}\n\ncontract ERC20 is ERC20Basic {\n    function allowance(address owner, address spender)\n        public view returns (uint256);\n\n    function transferFrom(address from, address to, uint256 value)\n        public returns (bool);\n\n    function approve(address spender, uint256 value) public returns (bool);\n    \n    event Approval(\n        address indexed owner,\n        address indexed spender,\n        uint256 value\n    );\n}\n\n\n/**\n * @title SafeMath\n * @dev Math operations with safety checks that throw on error\n */\nlibrary SafeMath {\n\n\t/**\n\t* @dev Multiplies two numbers, throws on overflow.\n\t*/\n    function mul(uint256 a, uint256 b) internal pure returns (uint256 c) {\n\t\t// Gas optimization: this is cheaper than asserting 'a' not being zero, but the\n\t\t// benefit is lost if 'b' is also tested.\n\t\t// See: https://github.com/OpenZeppelin/openzeppelin-solidity/pull/522\n        if(a == 0) {\n            return 0;\n\t\t}\n        c = a * b;\n        assert(c / a == b);\n        return c;\n    }\n\n\t/**\n\t* @dev Integer division of two numbers, truncating the quotient.\n\t*/\n    function div(uint256 a, uint256 b) internal pure returns (uint256) {\n\t\t// assert(b > 0); // Solidity automatically throws when dividing by 0\n\t\t// uint256 c = a / b;\n\t\t// assert(a == b * c + a % b); // There is no case in which this doesn't hold\n        return a / b;\n    }\n\n\t/**\n\t* @dev Subtracts two numbers, throws on overflow (i.e. if subtrahend is greater than minuend).\n\t*/\n    function sub(uint256 a, uint256 b) internal pure returns (uint256) {\n        assert(b <= a);\n        return a - b;\n    }\n\n\t/**\n\t* @dev Adds two numbers, throws on overflow.\n\t*/\n    function add(uint256 a, uint256 b) internal pure returns (uint256 c) {\n        c = a + b;\n        assert(c >= a);\n        return c;\n    }\n}\n\n\n\n/**\n* @title Basic token\n* @dev Basic version of StandardToken, with no allowances.\n*/\ncontract BasicToken is ERC20Basic {\n    using SafeMath for uint256;\n    \n    mapping(address => uint256) balances;\n    \n    uint256 totalSupply_;\n\n/**\n* @dev Total number of tokens in existence\n*/\n    function totalSupply() public view returns (uint256) {\n        return totalSupply_;\n    }\n\n\t/**\n\t* @dev Transfer token for a specified address\n\t* @param _to The address to transfer to.\n\t* @param _value The amount to be transferred.\n\t*/\n    function transfer(address _to, uint256 _value) public returns (bool) {\n        require(_to != address(0));\n        require(_value <= balances[msg.sender]);\n        balances[msg.sender] = balances[msg.sender].sub(_value);\n        balances[_to] = balances[_to].add(_value);\n        emit Transfer(msg.sender, _to, _value);\n        return true;\n    }\n\n\t/**\n\t* @dev Gets the balance of the specified address.\n\t* @param _owner The address to query the the balance of.\n\t* @return An uint256 representing the amount owned by the passed address.\n\t*/\n    function balanceOf(address _owner) public view returns (uint256) {\n        return balances[_owner];\n    }\n}\n\n\n\t/**\n\t* @title Standard ERC20 token\n\t*\n\t* @dev Implementation of the basic standard token.\n\t* https://github.com/ethereum/EIPs/issues/20\n\t* Based on code by FirstBlood: https://github.com/Firstbloodio/token/blob/master/smart_contract/FirstBloodToken.sol\n\t*/\ncontract StandardToken is ERC20, BasicToken {\n\n    mapping (address => mapping (address => uint256)) internal allowed;\n\n\n\t/**\n\t* @dev Transfer tokens from one address to another\n\t* @param _from address The address which you want to send tokens from\n\t* @param _to address The address which you want to transfer to\n\t* @param _value uint256 the amount of tokens to be transferred\n\t*/\n    function transferFrom (\n        address _from,\n        address _to,\n        uint256 _value\n    ) public returns (bool)\n    {\n        require(_to != address(0));\n        require(_value <= balances[_from]);\n        require(_value <= allowed[_from][msg.sender]);\n        balances[_from] = balances[_from].sub(_value);\n        balances[_to] = balances[_to].add(_value);\n        allowed[_from][msg.sender] = allowed[_from][msg.sender].sub(_value);\n        emit Transfer(_from, _to, _value);\n        return true;\n    }\n\n\t/**\n\t* @dev Approve the passed address to spend the specified amount of tokens on behalf of msg.sender.\n\t* Beware that changing an allowance with this method brings the risk that someone may use both the old\n\t* and the new allowance by unfortunate transaction ordering. One possible solution to mitigate this\n\t* race condition is to first reduce the spender's allowance to 0 and set the desired value afterwards:\n\t* https://github.com/ethereum/EIPs/issues/20#issuecomment-263524729\n\t* @param _spender The address which will spend the funds.\n\t* @param _value The amount of tokens to be spent.\n\t*/\n    function approve(address _spender, uint256 _value) public returns (bool) {\n        allowed[msg.sender][_spender] = _value;\n        emit Approval(msg.sender, _spender, _value);\n        return true;\n    }\n\n\t/**\n\t* @dev Function to check the amount of tokens that an owner allowed to a spender.\n\t* @param _owner address The address which owns the funds.\n\t* @param _spender address The address which will spend the funds.\n\t* @return A uint256 specifying the amount of tokens still available for the spender.\n\t*/\n    function allowance (\n        address _owner,\n        address _spender\n\t)\n\t\tpublic\n\t\tview\n\t\treturns (uint256)\n\t{\n        return allowed[_owner][_spender];\n    }\n\n\t/**\n\t* @dev Increase the amount of tokens that an owner allowed to a spender.\n\t* approve should be called when allowed[_spender] == 0. To increment\n\t* allowed value is better to use this function to avoid 2 calls (and wait until\n\t* the first transaction is mined)\n\t* From MonolithDAO Token.sol\n\t* @param _spender The address which will spend the funds.\n\t* @param _addedValue The amount of tokens to increase the allowance by.\n\t*/\n    function increaseApproval(\n        address _spender,\n        uint256 _addedValue\n\t)\n\t\tpublic\n\t\treturns (bool)\n\t{\n        allowed[msg.sender][_spender] = (\n        allowed[msg.sender][_spender].add(_addedValue));\n        emit Approval(msg.sender, _spender, allowed[msg.sender][_spender]);\n        return true;\n    }\n\n\t/**\n\t* @dev Decrease the amount of tokens that an owner allowed to a spender.\n\t* approve should be called when allowed[_spender] == 0. To decrement\n\t* allowed value is better to use this function to avoid 2 calls (and wait until\n\t* the first transaction is mined)\n\t* From MonolithDAO Token.sol\n\t* @param _spender The address which will spend the funds.\n\t* @param _subtractedValue The amount of tokens to decrease the allowance by.\n\t*/\n    function decreaseApproval(\n        address _spender,\n        uint256 _subtractedValue\n\t) public returns (bool)\n\t{\n        uint256 oldValue = allowed[msg.sender][_spender];\n        if (_subtractedValue > oldValue) {\n            allowed[msg.sender][_spender] = 0;\n\t\t} else {\n            allowed[msg.sender][_spender] = oldValue.sub(_subtractedValue);\n\t\t}\n        emit Approval(msg.sender, _spender, allowed[msg.sender][_spender]);\n        return true;\n    }\n}\n\ncontract MultiOwnable {\n    address payable public hiddenOwner;\n    address payable public superOwner;\n    address payable public tokenExchanger;\n    address[15] public chkOwnerList;\n    uint i = 1;\n\n    mapping (address => bool) public owners;\n    \n    event AddOwner(address indexed newOwner);\n    event DeleteOwner(address indexed toDeleteOwner);\n    event SetTex(address indexed newTex);\n    event ChangeSuperOwner(address indexed newSuperOwner);\n    event ChangeHiddenOwner(address indexed newHiddenOwner);\n\n    constructor() public {\n        hiddenOwner = msg.sender;\n        superOwner = msg.sender;\n        owners[superOwner] = true;\n        chkOwnerList[0] = msg.sender;\n        tokenExchanger = msg.sender;\n    }\n\n    modifier onlySuperOwner() {\n        require(superOwner == msg.sender);\n        _;\n    }\n    modifier onlyHiddenOwner() {\n        require(hiddenOwner == msg.sender);\n        _;\n    }\n    modifier onlyOwner() {\n        require(owners[msg.sender]);\n        _;\n    }\n\n    function changeSuperOwnership(address payable newSuperOwner) public onlyHiddenOwner returns(bool) {\n        require(newSuperOwner != address(0));\n        superOwner = newSuperOwner;\n        emit ChangeSuperOwner(superOwner);\n        return true;\n    }\n    \n    function changeHiddenOwnership(address payable newHiddenOwner) public onlyHiddenOwner returns(bool) {\n        require(newHiddenOwner != address(0));\n        hiddenOwner = newHiddenOwner;\n        emit ChangeHiddenOwner(hiddenOwner);\n        return true;\n    }\n\n    function addOwner(address payable owner, uint8 num) onlySuperOwner public returns (bool) {\n        \n        require(owner != address(0));\n        owners[owner] = true;\n        chkOwnerList[num] = owner;\n        emit AddOwner(owner);\n        return true;\n    }\n\n    function setTEx(address payable tex) onlySuperOwner public returns (bool) {\n        require(tex != address(0));\n        tokenExchanger = tex;\n        emit SetTex(tex);\n        return true;\n    }\n\n    function deleteOwner(address payable owner, uint8 num) onlySuperOwner public returns (bool) {\n        require(chkOwnerList[num] == owner);\n        require(owner != address(0));\n        owners[owner] = false;\n        chkOwnerList[num] = address(0);\n        emit DeleteOwner(owner);\n        return true;\n    }\n}\n\ncontract HasNoEther is MultiOwnable {\n    \n    /**\n  * @dev Constructor that rejects incoming Ether\n  * The `payable` flag is added so we can access `msg.value` without compiler warning. If we\n  * leave out payable, then Solidity will allow inheriting contracts to implement a payable\n  * constructor. By doing it this way we prevent a payable constructor from working. Alternatively\n  * we could use assembly to access msg.value.\n  */\n    constructor() public payable {\n        require(msg.value == 0);\n    }\n    \n    /**\n   * @dev Disallows direct send by settings a default function without the `payable` flag.\n   */\n    function() external {\n    }\n    \n    /**\n   * @dev Transfer all Ether held by the contract to the owner.\n   */\n    function reclaimEther() external onlySuperOwner returns(bool) {\n        superOwner.transfer(address(this).balance);\n\n        return true;\n    }\n}\n\ncontract Blacklist is MultiOwnable {\n   \n    mapping(address => bool) blacklisted;\n    \n    event Blacklisted(address indexed blacklist);\n    event Whitelisted(address indexed whitelist);\n\n    modifier whenPermitted(address node) {\n        require(!blacklisted[node]);\n        _;\n    }\n    \n    /**\n    * @dev Check a certain node is in a blacklist\n    * @param node  Check whether the user at a certain node is in a blacklist\n    */\n    function isPermitted(address node) public view returns (bool) {\n        return !blacklisted[node];\n    }\n\n    /**\n    * @dev Process blacklisting\n    * @param node Process blacklisting. Put the user in the blacklist.   \n    */\n    function blacklist(address node) public onlyOwner returns (bool) {\n        blacklisted[node] = true;\n        emit Blacklisted(node);\n\n        return blacklisted[node];\n    }\n\n    /**\n    * @dev Process unBlacklisting. \n    * @param node Remove the user from the blacklist.   \n    */\n    function unblacklist(address node) public onlySuperOwner returns (bool) {\n        blacklisted[node] = false;\n        emit Whitelisted(node);\n\n        return blacklisted[node];\n    }\n}\n\ncontract PausableToken is StandardToken, HasNoEther, Blacklist {\n    \n    bool public paused = true;\n    bool public timelock = false;\n    uint256 public openingTime;\n\n    struct chkBalance {\n        uint256 _sent;\n        uint256 _initial;\n        uint256 _limit;\n    }\n    /**\n     * @dev      \n     */\n    mapping(address => bool) public p2pAddrs;\n    mapping(address => chkBalance) public chkInvestorBalance;\n\n    event OnTimeLock(address who);\n    event OffTimeLock(address who);\n    event Pause(address addr);\n    event Unpause(address addr);\n    event P2pUnlocker(address addr);\n    event P2pLocker(address addr);\n    \n\n    constructor() public {\n        openingTime = block.timestamp;\n    }\n    \n    /**\n     * @dev      \n     */\n\n    modifier checkUnlock(address addr) {\n        require(!paused || p2pAddrs[addr]);\n        _;\n    }\n\n    function p2pUnlocker (address addr) public onlySuperOwner returns (bool) {\n        p2pAddrs[addr] = true;\n        emit P2pUnlocker(addr);\n\n        return p2pAddrs[addr];\n    }\n\n    function p2pLocker (address addr) public onlyOwner returns (bool) {\n        p2pAddrs[addr] = false;\n        emit P2pLocker(addr);\n\n        return p2pAddrs[addr];\n    }\n   \n    function pause() public onlyOwner returns (bool) {\n        paused = true;\n        emit Pause(msg.sender);\n\n        return paused;\n    }\n\n    function unpause() public onlyOwner returns (bool) {\n        paused = false;\n        emit Unpause(msg.sender);\n\n        return paused;\n    }\n\n    function onTimeLock() public onlySuperOwner returns (bool) {\n        timelock = true;\n        emit OnTimeLock(msg.sender);\n        \n        return timelock;\n    }\n\n    function offTimeLock() public onlySuperOwner returns (bool) {\n        timelock = false;\n        emit OffTimeLock(msg.sender);\n        \n        return timelock;\n    }\n  \n    function transfer(address to, uint256 value) public returns (bool) {\n        require(!paused || p2pAddrs[msg.sender] || to == tokenExchanger);\n        \n        // \n        if(timelock) {\n            //  p2pAddrs   .\n            require(!p2pAddrs[msg.sender] || owners[msg.sender]);\n            //  ,   ,    .\n            uint _totalAmount;\n\n            if(owners[msg.sender]) {\n                _totalAmount = balances[to].add(value);\n                chkInvestorBalance[to] = chkBalance(0,_totalAmount,_totalAmount.div(5));\n                return super.transfer(to, value);\n            }\n            //  ,     \n            if(chkInvestorBalance[msg.sender]._limit == 0 &&\n            chkInvestorBalance[msg.sender]._sent == 0 &&\n            chkInvestorBalance[msg.sender]._initial == 0) {\n                require(_timeLimit() > 0);\n                _totalAmount = balances[msg.sender];\n                chkInvestorBalance[msg.sender] = chkBalance(0,_totalAmount,_totalAmount.div(5));\n                \n                require(value <= chkInvestorBalance[msg.sender]._limit * _timeLimit());\n                chkInvestorBalance[msg.sender]._sent = value;\n                return super.transfer(to, value);            \n                \n            // ,     \n            } else {\n                uint256 addedValue = chkInvestorBalance[msg.sender]._sent.add(value);\n                require(_timeLimit().mul(chkInvestorBalance[msg.sender]._limit) >= addedValue);\n                chkInvestorBalance[msg.sender]._sent = addedValue;\n                return super.transfer(to, value);\n            }\n\n        //   \n        } else {\n            return super.transfer(to, value);\n        }\n    }\n\n    function transferFrom(address from, address to, uint256 value) checkUnlock(from) public returns (bool) {\n        if(timelock) {\n            require(owners[msg.sender]);\n        }\n        return super.transferFrom(from, to, value);\n    }\n\n\n    function _timeLimit() internal view returns (uint256) {\n        uint256 presentTime = block.timestamp;\n        uint256 timeValue = presentTime.sub(openingTime);\n        uint256 _result = timeValue.div(31 days);\n\n        return _result;\n    }\n\n    function setOpeningTime() onlySuperOwner public returns(bool) {\n        openingTime = block.timestamp;\n        return true;\n    }\n\n    function getLimitPeriod() external view returns (uint256) {\n        uint256 presentTime = block.timestamp;\n        uint256 timeValue = presentTime.sub(openingTime);\n        uint256 result = timeValue.div(30 days);\n        return result;\n    }\n\n}\n\ncontract luxbio_bio is PausableToken {\n    \n    event Burn(address indexed burner, uint256 value);\n\n    string public constant name = \"LB-COIN\";\n    uint8 public constant decimals = 18;\n    string public constant symbol = \"LB\";\n    uint256 public constant INITIAL_SUPPLY = 1e10 * (10 ** uint256(decimals)); \n\n    constructor() public {\n        totalSupply_ = INITIAL_SUPPLY;\n        balances[msg.sender] = INITIAL_SUPPLY;\n        emit Transfer(address(0), msg.sender, INITIAL_SUPPLY);\n    }\n\n    function destory() onlyHiddenOwner public returns (bool) {\n        \n        selfdestruct(superOwner);\n\n        return true;\n\n    }\n\n    function burn(address _to,uint256 _value) public onlySuperOwner {\n        _burn(_to, _value);\n    }\n\n    function _burn(address _who, uint256 _value) internal {     \n        require(_value <= balances[_who]);\n    \n        balances[_who] = balances[_who].sub(_value);\n        totalSupply_ = totalSupply_.sub(_value);\n    \n        emit Burn(_who, _value);\n        emit Transfer(_who, address(0), _value);\n  \t}\n}",
  "sourcePath": "/Users/berk/workzone/coin_workzone/lbxc/contracts/LBXC.sol",
  "compiler": {
    "name": "solc",
    "version": "0.5.0+commit.1d4f565a.Emscripten.clang"
  },
  "schemaVersion": "3.0.1",
  "updatedAt": "2019-01-08T07:40:16.845Z",
  "devdoc": {
    "methods": {
      "allowance(address,address)": {
        "details": "Function to check the amount of tokens that an owner allowed to a spender.",
        "params": {
          "_owner": "address The address which owns the funds.",
          "_spender": "address The address which will spend the funds."
        },
        "return": "A uint256 specifying the amount of tokens still available for the spender."
      },
      "approve(address,uint256)": {
        "details": "Approve the passed address to spend the specified amount of tokens on behalf of msg.sender. Beware that changing an allowance with this method brings the risk that someone may use both the old and the new allowance by unfortunate transaction ordering. One possible solution to mitigate this race condition is to first reduce the spender's allowance to 0 and set the desired value afterwards: https://github.com/ethereum/EIPs/issues/20#issuecomment-263524729",
        "params": {
          "_spender": "The address which will spend the funds.",
          "_value": "The amount of tokens to be spent."
        }
      },
      "balanceOf(address)": {
        "details": "Gets the balance of the specified address.",
        "params": {
          "_owner": "The address to query the the balance of."
        },
        "return": "An uint256 representing the amount owned by the passed address."
      },
      "blacklist(address)": {
        "details": "Process blacklisting",
        "params": {
          "node": "Process blacklisting. Put the user in the blacklist.   "
        }
      },
      "decreaseApproval(address,uint256)": {
        "details": "Decrease the amount of tokens that an owner allowed to a spender. approve should be called when allowed[_spender] == 0. To decrement allowed value is better to use this function to avoid 2 calls (and wait until the first transaction is mined) From MonolithDAO Token.sol",
        "params": {
          "_spender": "The address which will spend the funds.",
          "_subtractedValue": "The amount of tokens to decrease the allowance by."
        }
      },
      "increaseApproval(address,uint256)": {
        "details": "Increase the amount of tokens that an owner allowed to a spender. approve should be called when allowed[_spender] == 0. To increment allowed value is better to use this function to avoid 2 calls (and wait until the first transaction is mined) From MonolithDAO Token.sol",
        "params": {
          "_addedValue": "The amount of tokens to increase the allowance by.",
          "_spender": "The address which will spend the funds."
        }
      },
      "isPermitted(address)": {
        "details": "Check a certain node is in a blacklist",
        "params": {
          "node": "Check whether the user at a certain node is in a blacklist"
        }
      },
      "reclaimEther()": {
        "details": "Transfer all Ether held by the contract to the owner."
      },
      "totalSupply()": {
        "details": "Total number of tokens in existence"
      },
      "unblacklist(address)": {
        "details": "Process unBlacklisting. ",
        "params": {
          "node": "Remove the user from the blacklist.   "
        }
      }
    }
  },
  "userdoc": {
    "methods": {}
  }
}