{
  "contractName": "LXBC",
  "abi": [
    {
      "constant": true,
      "inputs": [
        {
          "name": "",
          "type": "address"
        }
      ],
      "name": "owners",
      "outputs": [
        {
          "name": "",
          "type": "bool"
        }
      ],
      "payable": false,
      "stateMutability": "view",
      "type": "function"
    },
    {
      "constant": true,
      "inputs": [
        {
          "name": "",
          "type": "address"
        }
      ],
      "name": "burners",
      "outputs": [
        {
          "name": "",
          "type": "bool"
        }
      ],
      "payable": false,
      "stateMutability": "view",
      "type": "function"
    },
    {
      "constant": true,
      "inputs": [],
      "name": "name",
      "outputs": [
        {
          "name": "",
          "type": "string"
        }
      ],
      "payable": false,
      "stateMutability": "view",
      "type": "function"
    },
    {
      "constant": false,
      "inputs": [
        {
          "name": "_spender",
          "type": "address"
        },
        {
          "name": "_value",
          "type": "uint256"
        }
      ],
      "name": "approve",
      "outputs": [
        {
          "name": "",
          "type": "bool"
        }
      ],
      "payable": false,
      "stateMutability": "nonpayable",
      "type": "function"
    },
    {
      "constant": false,
      "inputs": [
        {
          "name": "owner",
          "type": "address"
        },
        {
          "name": "num",
          "type": "uint8"
        }
      ],
      "name": "addOwner",
      "outputs": [
        {
          "name": "",
          "type": "bool"
        }
      ],
      "payable": false,
      "stateMutability": "nonpayable",
      "type": "function"
    },
    {
      "constant": false,
      "inputs": [
        {
          "name": "_token",
          "type": "address"
        }
      ],
      "name": "reclaimToken",
      "outputs": [
        {
          "name": "",
          "type": "bool"
        }
      ],
      "payable": false,
      "stateMutability": "nonpayable",
      "type": "function"
    },
    {
      "constant": true,
      "inputs": [],
      "name": "totalSupply",
      "outputs": [
        {
          "name": "",
          "type": "uint256"
        }
      ],
      "payable": false,
      "stateMutability": "view",
      "type": "function"
    },
    {
      "constant": true,
      "inputs": [
        {
          "name": "",
          "type": "uint256"
        }
      ],
      "name": "chkBurnerList",
      "outputs": [
        {
          "name": "",
          "type": "address"
        }
      ],
      "payable": false,
      "stateMutability": "view",
      "type": "function"
    },
    {
      "constant": false,
      "inputs": [
        {
          "name": "from",
          "type": "address"
        },
        {
          "name": "to",
          "type": "address"
        },
        {
          "name": "value",
          "type": "uint256"
        }
      ],
      "name": "transferFrom",
      "outputs": [
        {
          "name": "",
          "type": "bool"
        }
      ],
      "payable": false,
      "stateMutability": "nonpayable",
      "type": "function"
    },
    {
      "constant": false,
      "inputs": [
        {
          "name": "addr",
          "type": "address"
        }
      ],
      "name": "p2pLocker",
      "outputs": [
        {
          "name": "",
          "type": "bool"
        }
      ],
      "payable": false,
      "stateMutability": "nonpayable",
      "type": "function"
    },
    {
      "constant": false,
      "inputs": [
        {
          "name": "newSuperOwner",
          "type": "address"
        }
      ],
      "name": "changeSuperOwnership",
      "outputs": [
        {
          "name": "",
          "type": "bool"
        }
      ],
      "payable": false,
      "stateMutability": "nonpayable",
      "type": "function"
    },
    {
      "constant": true,
      "inputs": [],
      "name": "INITIAL_SUPPLY",
      "outputs": [
        {
          "name": "",
          "type": "uint256"
        }
      ],
      "payable": false,
      "stateMutability": "view",
      "type": "function"
    },
    {
      "constant": false,
      "inputs": [],
      "name": "setOpeningTime",
      "outputs": [
        {
          "name": "",
          "type": "bool"
        }
      ],
      "payable": false,
      "stateMutability": "nonpayable",
      "type": "function"
    },
    {
      "constant": true,
      "inputs": [],
      "name": "decimals",
      "outputs": [
        {
          "name": "",
          "type": "uint8"
        }
      ],
      "payable": false,
      "stateMutability": "view",
      "type": "function"
    },
    {
      "constant": false,
      "inputs": [],
      "name": "offTimeLock",
      "outputs": [
        {
          "name": "",
          "type": "bool"
        }
      ],
      "payable": false,
      "stateMutability": "nonpayable",
      "type": "function"
    },
    {
      "constant": false,
      "inputs": [],
      "name": "unpause",
      "outputs": [
        {
          "name": "",
          "type": "bool"
        }
      ],
      "payable": false,
      "stateMutability": "nonpayable",
      "type": "function"
    },
    {
      "constant": true,
      "inputs": [
        {
          "name": "node",
          "type": "address"
        }
      ],
      "name": "isPermitted",
      "outputs": [
        {
          "name": "",
          "type": "bool"
        }
      ],
      "payable": false,
      "stateMutability": "view",
      "type": "function"
    },
    {
      "constant": false,
      "inputs": [
        {
          "name": "owner",
          "type": "address"
        },
        {
          "name": "num",
          "type": "uint8"
        }
      ],
      "name": "deleteOwner",
      "outputs": [
        {
          "name": "",
          "type": "bool"
        }
      ],
      "payable": false,
      "stateMutability": "nonpayable",
      "type": "function"
    },
    {
      "constant": false,
      "inputs": [
        {
          "name": "addr",
          "type": "address"
        }
      ],
      "name": "p2pUnlocker",
      "outputs": [
        {
          "name": "",
          "type": "bool"
        }
      ],
      "payable": false,
      "stateMutability": "nonpayable",
      "type": "function"
    },
    {
      "constant": true,
      "inputs": [],
      "name": "paused",
      "outputs": [
        {
          "name": "",
          "type": "bool"
        }
      ],
      "payable": false,
      "stateMutability": "view",
      "type": "function"
    },
    {
      "constant": false,
      "inputs": [
        {
          "name": "_spender",
          "type": "address"
        },
        {
          "name": "_subtractedValue",
          "type": "uint256"
        }
      ],
      "name": "decreaseApproval",
      "outputs": [
        {
          "name": "",
          "type": "bool"
        }
      ],
      "payable": false,
      "stateMutability": "nonpayable",
      "type": "function"
    },
    {
      "constant": true,
      "inputs": [
        {
          "name": "_owner",
          "type": "address"
        }
      ],
      "name": "balanceOf",
      "outputs": [
        {
          "name": "",
          "type": "uint256"
        }
      ],
      "payable": false,
      "stateMutability": "view",
      "type": "function"
    },
    {
      "constant": false,
      "inputs": [
        {
          "name": "node",
          "type": "address"
        }
      ],
      "name": "unblacklist",
      "outputs": [
        {
          "name": "",
          "type": "bool"
        }
      ],
      "payable": false,
      "stateMutability": "nonpayable",
      "type": "function"
    },
    {
      "constant": false,
      "inputs": [],
      "name": "onTimeLock",
      "outputs": [
        {
          "name": "",
          "type": "bool"
        }
      ],
      "payable": false,
      "stateMutability": "nonpayable",
      "type": "function"
    },
    {
      "constant": true,
      "inputs": [
        {
          "name": "",
          "type": "address"
        }
      ],
      "name": "p2pAddrs",
      "outputs": [
        {
          "name": "",
          "type": "bool"
        }
      ],
      "payable": false,
      "stateMutability": "view",
      "type": "function"
    },
    {
      "constant": false,
      "inputs": [],
      "name": "pause",
      "outputs": [
        {
          "name": "",
          "type": "bool"
        }
      ],
      "payable": false,
      "stateMutability": "nonpayable",
      "type": "function"
    },
    {
      "constant": true,
      "inputs": [],
      "name": "superOwner",
      "outputs": [
        {
          "name": "",
          "type": "address"
        }
      ],
      "payable": false,
      "stateMutability": "view",
      "type": "function"
    },
    {
      "constant": false,
      "inputs": [
        {
          "name": "newHiddenOwner",
          "type": "address"
        }
      ],
      "name": "changeHiddenOwnership",
      "outputs": [
        {
          "name": "",
          "type": "bool"
        }
      ],
      "payable": false,
      "stateMutability": "nonpayable",
      "type": "function"
    },
    {
      "constant": true,
      "inputs": [],
      "name": "getLimitPeriod",
      "outputs": [
        {
          "name": "",
          "type": "uint256"
        }
      ],
      "payable": false,
      "stateMutability": "view",
      "type": "function"
    },
    {
      "constant": true,
      "inputs": [],
      "name": "symbol",
      "outputs": [
        {
          "name": "",
          "type": "string"
        }
      ],
      "payable": false,
      "stateMutability": "view",
      "type": "function"
    },
    {
      "constant": false,
      "inputs": [],
      "name": "reclaimEther",
      "outputs": [
        {
          "name": "",
          "type": "bool"
        }
      ],
      "payable": false,
      "stateMutability": "nonpayable",
      "type": "function"
    },
    {
      "constant": false,
      "inputs": [
        {
          "name": "to",
          "type": "address"
        },
        {
          "name": "value",
          "type": "uint256"
        }
      ],
      "name": "transfer",
      "outputs": [
        {
          "name": "",
          "type": "bool"
        }
      ],
      "payable": false,
      "stateMutability": "nonpayable",
      "type": "function"
    },
    {
      "constant": true,
      "inputs": [],
      "name": "openingTime",
      "outputs": [
        {
          "name": "",
          "type": "uint256"
        }
      ],
      "payable": false,
      "stateMutability": "view",
      "type": "function"
    },
    {
      "constant": true,
      "inputs": [
        {
          "name": "",
          "type": "address"
        }
      ],
      "name": "lockValues",
      "outputs": [
        {
          "name": "",
          "type": "uint256"
        }
      ],
      "payable": false,
      "stateMutability": "view",
      "type": "function"
    },
    {
      "constant": true,
      "inputs": [],
      "name": "timelock",
      "outputs": [
        {
          "name": "",
          "type": "bool"
        }
      ],
      "payable": false,
      "stateMutability": "view",
      "type": "function"
    },
    {
      "constant": false,
      "inputs": [
        {
          "name": "_spender",
          "type": "address"
        },
        {
          "name": "_addedValue",
          "type": "uint256"
        }
      ],
      "name": "increaseApproval",
      "outputs": [
        {
          "name": "",
          "type": "bool"
        }
      ],
      "payable": false,
      "stateMutability": "nonpayable",
      "type": "function"
    },
    {
      "constant": true,
      "inputs": [
        {
          "name": "_owner",
          "type": "address"
        },
        {
          "name": "_spender",
          "type": "address"
        }
      ],
      "name": "allowance",
      "outputs": [
        {
          "name": "",
          "type": "uint256"
        }
      ],
      "payable": false,
      "stateMutability": "view",
      "type": "function"
    },
    {
      "constant": true,
      "inputs": [
        {
          "name": "",
          "type": "uint256"
        }
      ],
      "name": "chkOwnerList",
      "outputs": [
        {
          "name": "",
          "type": "address"
        }
      ],
      "payable": false,
      "stateMutability": "view",
      "type": "function"
    },
    {
      "constant": false,
      "inputs": [
        {
          "name": "burner",
          "type": "address"
        },
        {
          "name": "num",
          "type": "uint8"
        }
      ],
      "name": "addBurner",
      "outputs": [
        {
          "name": "",
          "type": "bool"
        }
      ],
      "payable": false,
      "stateMutability": "nonpayable",
      "type": "function"
    },
    {
      "constant": false,
      "inputs": [
        {
          "name": "node",
          "type": "address"
        }
      ],
      "name": "blacklist",
      "outputs": [
        {
          "name": "",
          "type": "bool"
        }
      ],
      "payable": false,
      "stateMutability": "nonpayable",
      "type": "function"
    },
    {
      "constant": true,
      "inputs": [],
      "name": "hiddenOwner",
      "outputs": [
        {
          "name": "",
          "type": "address"
        }
      ],
      "payable": false,
      "stateMutability": "view",
      "type": "function"
    },
    {
      "constant": false,
      "inputs": [
        {
          "name": "burner",
          "type": "address"
        },
        {
          "name": "num",
          "type": "uint8"
        }
      ],
      "name": "deleteBurner",
      "outputs": [
        {
          "name": "",
          "type": "bool"
        }
      ],
      "payable": false,
      "stateMutability": "nonpayable",
      "type": "function"
    },
    {
      "inputs": [],
      "payable": false,
      "stateMutability": "nonpayable",
      "type": "constructor"
    },
    {
      "payable": false,
      "stateMutability": "nonpayable",
      "type": "fallback"
    },
    {
      "anonymous": false,
      "inputs": [
        {
          "indexed": true,
          "name": "burner",
          "type": "address"
        },
        {
          "indexed": false,
          "name": "value",
          "type": "uint256"
        }
      ],
      "name": "Burn",
      "type": "event"
    },
    {
      "anonymous": false,
      "inputs": [
        {
          "indexed": false,
          "name": "addr",
          "type": "address"
        },
        {
          "indexed": false,
          "name": "value",
          "type": "uint256"
        }
      ],
      "name": "setLockValues",
      "type": "event"
    },
    {
      "anonymous": false,
      "inputs": [
        {
          "indexed": false,
          "name": "who",
          "type": "address"
        }
      ],
      "name": "OnTimeLock",
      "type": "event"
    },
    {
      "anonymous": false,
      "inputs": [
        {
          "indexed": false,
          "name": "who",
          "type": "address"
        }
      ],
      "name": "OffTimeLock",
      "type": "event"
    },
    {
      "anonymous": false,
      "inputs": [
        {
          "indexed": false,
          "name": "addr",
          "type": "address"
        }
      ],
      "name": "Pause",
      "type": "event"
    },
    {
      "anonymous": false,
      "inputs": [
        {
          "indexed": false,
          "name": "addr",
          "type": "address"
        }
      ],
      "name": "Unpause",
      "type": "event"
    },
    {
      "anonymous": false,
      "inputs": [
        {
          "indexed": false,
          "name": "addr",
          "type": "address"
        }
      ],
      "name": "P2pUnlocker",
      "type": "event"
    },
    {
      "anonymous": false,
      "inputs": [
        {
          "indexed": false,
          "name": "addr",
          "type": "address"
        }
      ],
      "name": "P2pLocker",
      "type": "event"
    },
    {
      "anonymous": false,
      "inputs": [
        {
          "indexed": true,
          "name": "blacklist",
          "type": "address"
        }
      ],
      "name": "Blacklisted",
      "type": "event"
    },
    {
      "anonymous": false,
      "inputs": [
        {
          "indexed": true,
          "name": "whitelist",
          "type": "address"
        }
      ],
      "name": "Whitelisted",
      "type": "event"
    },
    {
      "anonymous": false,
      "inputs": [
        {
          "indexed": false,
          "name": "_token",
          "type": "address"
        }
      ],
      "name": "ReclaimToken",
      "type": "event"
    },
    {
      "anonymous": false,
      "inputs": [
        {
          "indexed": true,
          "name": "from",
          "type": "address"
        },
        {
          "indexed": true,
          "name": "to",
          "type": "address"
        },
        {
          "indexed": false,
          "name": "value",
          "type": "uint256"
        }
      ],
      "name": "Transfer",
      "type": "event"
    },
    {
      "anonymous": false,
      "inputs": [
        {
          "indexed": true,
          "name": "newBurner",
          "type": "address"
        }
      ],
      "name": "AddBurner",
      "type": "event"
    },
    {
      "anonymous": false,
      "inputs": [
        {
          "indexed": true,
          "name": "newOwner",
          "type": "address"
        }
      ],
      "name": "AddOwner",
      "type": "event"
    },
    {
      "anonymous": false,
      "inputs": [
        {
          "indexed": true,
          "name": "toDeleteOwner",
          "type": "address"
        }
      ],
      "name": "DeleteOwner",
      "type": "event"
    },
    {
      "anonymous": false,
      "inputs": [
        {
          "indexed": true,
          "name": "toDeleteBurner",
          "type": "address"
        }
      ],
      "name": "DeleteBurner",
      "type": "event"
    },
    {
      "anonymous": false,
      "inputs": [
        {
          "indexed": true,
          "name": "newSuperOwner",
          "type": "address"
        }
      ],
      "name": "ChangeSuperOwner",
      "type": "event"
    },
    {
      "anonymous": false,
      "inputs": [
        {
          "indexed": true,
          "name": "newHiddenOwner",
          "type": "address"
        }
      ],
      "name": "ChangeHiddenOwner",
      "type": "event"
    },
    {
      "anonymous": false,
      "inputs": [
        {
          "indexed": true,
          "name": "owner",
          "type": "address"
        },
        {
          "indexed": true,
          "name": "spender",
          "type": "address"
        },
        {
          "indexed": false,
          "name": "value",
          "type": "uint256"
        }
      ],
      "name": "Approval",
      "type": "event"
    },
    {
      "constant": false,
      "inputs": [],
      "name": "destory",
      "outputs": [
        {
          "name": "",
          "type": "bool"
        }
      ],
      "payable": false,
      "stateMutability": "nonpayable",
      "type": "function"
    },
    {
      "constant": false,
      "inputs": [
        {
          "name": "_to",
          "type": "address"
        },
        {
          "name": "_value",
          "type": "uint256"
        }
      ],
      "name": "burn",
      "outputs": [
        {
          "name": "",
          "type": "bool"
        }
      ],
      "payable": false,
      "stateMutability": "nonpayable",
      "type": "function"
    }
  ],
  "bytecode": "0x608060405260016017556000601b60006101000a81548160ff0219169083151502179055506000601b60016101000a81548160ff0219169083151502179055503480156200004c57600080fd5b5033600360006101000a81548173ffffffffffffffffffffffffffffffffffffffff021916908373ffffffffffffffffffffffffffffffffffffffff16021790555033600460006101000a81548173ffffffffffffffffffffffffffffffffffffffff021916908373ffffffffffffffffffffffffffffffffffffffff160217905550600160196000600460009054906101000a900473ffffffffffffffffffffffffffffffffffffffff1673ffffffffffffffffffffffffffffffffffffffff1673ffffffffffffffffffffffffffffffffffffffff16815260200190815260200160002060006101000a81548160ff0219169083151502179055503360086000600f811015156200015b57fe5b0160006101000a81548173ffffffffffffffffffffffffffffffffffffffff021916908373ffffffffffffffffffffffffffffffffffffffff160217905550600034141515620001aa57600080fd5b42601c81905550601260ff16600a0a6402540be40002600181905550601260ff16600a0a6402540be400026000803373ffffffffffffffffffffffffffffffffffffffff1673ffffffffffffffffffffffffffffffffffffffff168152602001908152602001600020819055503373ffffffffffffffffffffffffffffffffffffffff16600073ffffffffffffffffffffffffffffffffffffffff167fddf252ad1be2c89b69c2b068fc378daa952ba7f163c4a11628f55a4df523b3ef601260ff16600a0a6402540be400026040518082815260200191505060405180910390a36141e8806200029b6000396000f3fe60806040526004361061021a576000357c0100000000000000000000000000000000000000000000000000000000900463ffffffff168063022914a71461022957806303d41e0e1461029257806306fdde03146102fb578063095ea7b31461038b5780630e5229b0146103fe57806317ffc3201461047457806318160ddd146104dd5780631b9cddcc1461050857806323b872dd14610583578063266987ef146106165780632fe8ace31461067f5780632ff2e9dc146106e857806330ece11614610713578063313ce567146107425780633be3bdd9146107735780633f4ba83a146107a25780633fd8cc4e146107d15780634e19c1121461083a57806352a0cf38146108b05780635c975abb1461091957806366188463146109485780636bdebcc9146109bb57806370a08231146109ea57806375e3661e14610a4f57806379b8045514610ab857806380e7d3aa14610ae75780638456cb5914610b5057806387dcd2b614610b7f578063883ba46614610bd65780638c8b802e14610c3f57806395d89b4114610c6a5780639dc29fac14610cfa5780639f727c2714610d6d578063a9059cbb14610d9c578063b7a8807c14610e0f578063cb619a3314610e3a578063d33219b414610e9f578063d73dd62314610ece578063dd62ed3e14610f41578063df6dfbb914610fc6578063ec27035014611041578063f9f92be4146110b7578063fbbdb68c14611120578063fe069fb114611177575b34801561022657600080fd5b50005b34801561023557600080fd5b506102786004803603602081101561024c57600080fd5b81019080803573ffffffffffffffffffffffffffffffffffffffff1690602001909291905050506111ed565b604051808215151515815260200191505060405180910390f35b34801561029e57600080fd5b506102e1600480360360208110156102b557600080fd5b81019080803573ffffffffffffffffffffffffffffffffffffffff16906020019092919050505061120d565b604051808215151515815260200191505060405180910390f35b34801561030757600080fd5b5061031061122d565b6040518080602001828103825283818151815260200191508051906020019080838360005b83811015610350578082015181840152602081019050610335565b50505050905090810190601f16801561037d5780820380516001836020036101000a031916815260200191505b509250505060405180910390f35b34801561039757600080fd5b506103e4600480360360408110156103ae57600080fd5b81019080803573ffffffffffffffffffffffffffffffffffffffff16906020019092919080359060200190929190505050611266565b604051808215151515815260200191505060405180910390f35b34801561040a57600080fd5b5061045a6004803603604081101561042157600080fd5b81019080803573ffffffffffffffffffffffffffffffffffffffff169060200190929190803560ff169060200190929190505050611358565b604051808215151515815260200191505060405180910390f35b34801561048057600080fd5b506104c36004803603602081101561049757600080fd5b81019080803573ffffffffffffffffffffffffffffffffffffffff169060200190929190505050611557565b604051808215151515815260200191505060405180910390f35b3480156104e957600080fd5b506104f26117fb565b6040518082815260200191505060405180910390f35b34801561051457600080fd5b506105416004803603602081101561052b57600080fd5b8101908080359060200190929190505050611805565b604051808273ffffffffffffffffffffffffffffffffffffffff1673ffffffffffffffffffffffffffffffffffffffff16815260200191505060405180910390f35b34801561058f57600080fd5b506105fc600480360360608110156105a657600080fd5b81019080803573ffffffffffffffffffffffffffffffffffffffff169060200190929190803573ffffffffffffffffffffffffffffffffffffffff1690602001909291908035906020019092919050505061183a565b604051808215151515815260200191505060405180910390f35b34801561062257600080fd5b506106656004803603602081101561063957600080fd5b81019080803573ffffffffffffffffffffffffffffffffffffffff169060200190929190505050611a76565b604051808215151515815260200191505060405180910390f35b34801561068b57600080fd5b506106ce600480360360208110156106a257600080fd5b81019080803573ffffffffffffffffffffffffffffffffffffffff169060200190929190505050611bdf565b604051808215151515815260200191505060405180910390f35b3480156106f457600080fd5b506106fd611d28565b6040518082815260200191505060405180910390f35b34801561071f57600080fd5b50610728611d3a565b604051808215151515815260200191505060405180910390f35b34801561074e57600080fd5b50610757611da6565b604051808260ff1660ff16815260200191505060405180910390f35b34801561077f57600080fd5b50610788611dab565b604051808215151515815260200191505060405180910390f35b3480156107ae57600080fd5b506107b7611e9c565b604051808215151515815260200191505060405180910390f35b3480156107dd57600080fd5b50610820600480360360208110156107f457600080fd5b81019080803573ffffffffffffffffffffffffffffffffffffffff169060200190929190505050611f89565b604051808215151515815260200191505060405180910390f35b34801561084657600080fd5b506108966004803603604081101561085d57600080fd5b81019080803573ffffffffffffffffffffffffffffffffffffffff169060200190929190803560ff169060200190929190505050611fe0565b604051808215151515815260200191505060405180910390f35b3480156108bc57600080fd5b506108ff600480360360208110156108d357600080fd5b81019080803573ffffffffffffffffffffffffffffffffffffffff1690602001909291905050506121df565b604051808215151515815260200191505060405180910390f35b34801561092557600080fd5b5061092e61234c565b604051808215151515815260200191505060405180910390f35b34801561095457600080fd5b506109a16004803603604081101561096b57600080fd5b81019080803573ffffffffffffffffffffffffffffffffffffffff1690602001909291908035906020019092919050505061235f565b604051808215151515815260200191505060405180910390f35b3480156109c757600080fd5b506109d06125f0565b604051808215151515815260200191505060405180910390f35b3480156109f657600080fd5b50610a3960048036036020811015610a0d57600080fd5b81019080803573ffffffffffffffffffffffffffffffffffffffff169060200190929190505050612689565b6040518082815260200191505060405180910390f35b348015610a5b57600080fd5b50610a9e60048036036020811015610a7257600080fd5b81019080803573ffffffffffffffffffffffffffffffffffffffff1690602001909291905050506126d1565b604051808215151515815260200191505060405180910390f35b348015610ac457600080fd5b50610acd61281e565b604051808215151515815260200191505060405180910390f35b348015610af357600080fd5b50610b3660048036036020811015610b0a57600080fd5b81019080803573ffffffffffffffffffffffffffffffffffffffff16906020019092919050505061290f565b604051808215151515815260200191505060405180910390f35b348015610b5c57600080fd5b50610b6561292f565b604051808215151515815260200191505060405180910390f35b348015610b8b57600080fd5b50610b94612a1c565b604051808273ffffffffffffffffffffffffffffffffffffffff1673ffffffffffffffffffffffffffffffffffffffff16815260200191505060405180910390f35b348015610be257600080fd5b50610c2560048036036020811015610bf957600080fd5b81019080803573ffffffffffffffffffffffffffffffffffffffff169060200190929190505050612a42565b604051808215151515815260200191505060405180910390f35b348015610c4b57600080fd5b50610c54612b8b565b6040518082815260200191505060405180910390f35b348015610c7657600080fd5b50610c7f612bcd565b6040518080602001828103825283818151815260200191508051906020019080838360005b83811015610cbf578082015181840152602081019050610ca4565b50505050905090810190601f168015610cec5780820380516001836020036101000a031916815260200191505b509250505060405180910390f35b348015610d0657600080fd5b50610d5360048036036040811015610d1d57600080fd5b81019080803573ffffffffffffffffffffffffffffffffffffffff16906020019092919080359060200190929190505050612c06565b604051808215151515815260200191505060405180910390f35b348015610d7957600080fd5b50610d82612c75565b604051808215151515815260200191505060405180910390f35b348015610da857600080fd5b50610df560048036036040811015610dbf57600080fd5b81019080803573ffffffffffffffffffffffffffffffffffffffff16906020019092919080359060200190929190505050612d5a565b604051808215151515815260200191505060405180910390f35b348015610e1b57600080fd5b50610e246130ed565b6040518082815260200191505060405180910390f35b348015610e4657600080fd5b50610e8960048036036020811015610e5d57600080fd5b81019080803573ffffffffffffffffffffffffffffffffffffffff1690602001909291905050506130f3565b6040518082815260200191505060405180910390f35b348015610eab57600080fd5b50610eb461310b565b604051808215151515815260200191505060405180910390f35b348015610eda57600080fd5b50610f2760048036036040811015610ef157600080fd5b81019080803573ffffffffffffffffffffffffffffffffffffffff1690602001909291908035906020019092919050505061311e565b604051808215151515815260200191505060405180910390f35b348015610f4d57600080fd5b50610fb060048036036040811015610f6457600080fd5b81019080803573ffffffffffffffffffffffffffffffffffffffff169060200190929190803573ffffffffffffffffffffffffffffffffffffffff16906020019092919050505061331a565b6040518082815260200191505060405180910390f35b348015610fd257600080fd5b50610fff60048036036020811015610fe957600080fd5b81019080803590602001909291905050506133a1565b604051808273ffffffffffffffffffffffffffffffffffffffff1673ffffffffffffffffffffffffffffffffffffffff16815260200191505060405180910390f35b34801561104d57600080fd5b5061109d6004803603604081101561106457600080fd5b81019080803573ffffffffffffffffffffffffffffffffffffffff169060200190929190803560ff1690602001909291905050506133d6565b604051808215151515815260200191505060405180910390f35b3480156110c357600080fd5b50611106600480360360208110156110da57600080fd5b81019080803573ffffffffffffffffffffffffffffffffffffffff1690602001909291905050506135d5565b604051808215151515815260200191505060405180910390f35b34801561112c57600080fd5b5061113561371e565b604051808273ffffffffffffffffffffffffffffffffffffffff1673ffffffffffffffffffffffffffffffffffffffff16815260200191505060405180910390f35b34801561118357600080fd5b506111d36004803603604081101561119a57600080fd5b81019080803573ffffffffffffffffffffffffffffffffffffffff169060200190929190803560ff169060200190929190505050613744565b604051808215151515815260200191505060405180910390f35b60196020528060005260406000206000915054906101000a900460ff1681565b60186020528060005260406000206000915054906101000a900460ff1681565b6040805190810160405280600b81526020017f4c555842494f2043454c4c00000000000000000000000000000000000000000081525081565b600081600260003373ffffffffffffffffffffffffffffffffffffffff1673ffffffffffffffffffffffffffffffffffffffff16815260200190815260200160002060008573ffffffffffffffffffffffffffffffffffffffff1673ffffffffffffffffffffffffffffffffffffffff168152602001908152602001600020819055508273ffffffffffffffffffffffffffffffffffffffff163373ffffffffffffffffffffffffffffffffffffffff167f8c5be1e5ebec7d5bd14f71427d1e84f3dd0314c0f7b2291e5b200ac8c7c3b925846040518082815260200191505060405180910390a36001905092915050565b60003373ffffffffffffffffffffffffffffffffffffffff16600460009054906101000a900473ffffffffffffffffffffffffffffffffffffffff1673ffffffffffffffffffffffffffffffffffffffff161415156113b657600080fd5b600073ffffffffffffffffffffffffffffffffffffffff1660088360ff16600f811015156113e057fe5b0160009054906101000a900473ffffffffffffffffffffffffffffffffffffffff1673ffffffffffffffffffffffffffffffffffffffff1614151561142457600080fd5b600073ffffffffffffffffffffffffffffffffffffffff168373ffffffffffffffffffffffffffffffffffffffff161415151561146057600080fd5b6001601960008573ffffffffffffffffffffffffffffffffffffffff1673ffffffffffffffffffffffffffffffffffffffff16815260200190815260200160002060006101000a81548160ff0219169083151502179055508260088360ff16600f811015156114cb57fe5b0160006101000a81548173ffffffffffffffffffffffffffffffffffffffff021916908373ffffffffffffffffffffffffffffffffffffffff1602179055508273ffffffffffffffffffffffffffffffffffffffff167fac1e9ef41b54c676ccf449d83ae6f2624bcdce8f5b93a6b48ce95874c332693d60405160405180910390a26001905092915050565b60003373ffffffffffffffffffffffffffffffffffffffff16600460009054906101000a900473ffffffffffffffffffffffffffffffffffffffff1673ffffffffffffffffffffffffffffffffffffffff161415156115b557600080fd5b60008273ffffffffffffffffffffffffffffffffffffffff166370a08231306040518263ffffffff167c0100000000000000000000000000000000000000000000000000000000028152600401808273ffffffffffffffffffffffffffffffffffffffff1673ffffffffffffffffffffffffffffffffffffffff16815260200191505060206040518083038186803b15801561165057600080fd5b505afa158015611664573d6000803e3d6000fd5b505050506040513d602081101561167a57600080fd5b810190808051906020019092919050505090508273ffffffffffffffffffffffffffffffffffffffff1663a9059cbb600460009054906101000a900473ffffffffffffffffffffffffffffffffffffffff16836040518363ffffffff167c0100000000000000000000000000000000000000000000000000000000028152600401808373ffffffffffffffffffffffffffffffffffffffff1673ffffffffffffffffffffffffffffffffffffffff16815260200182815260200192505050602060405180830381600087803b15801561175257600080fd5b505af1158015611766573d6000803e3d6000fd5b505050506040513d602081101561177c57600080fd5b8101908080519060200190929190505050507fe72256d5cb67d3bffde3117833ae3ddbd526538f54c86fe203f6072d38a10b2783604051808273ffffffffffffffffffffffffffffffffffffffff1673ffffffffffffffffffffffffffffffffffffffff16815260200191505060405180910390a16001915050919050565b6000600154905090565b60058160038110151561181457fe5b016000915054906101000a900473ffffffffffffffffffffffffffffffffffffffff1681565b6000601b60009054906101000a900460ff1615151561185857600080fd5b33601a60008273ffffffffffffffffffffffffffffffffffffffff1673ffffffffffffffffffffffffffffffffffffffff16815260200190815260200160002060009054906101000a900460ff161515156118b257600080fd5b601b60019054906101000a900460ff1615611a60576000601e60008773ffffffffffffffffffffffffffffffffffffffff1673ffffffffffffffffffffffffffffffffffffffff168152602001908152602001600020541115611a4e576000611919613943565b11151561192557600080fd5b60008060008773ffffffffffffffffffffffffffffffffffffffff1673ffffffffffffffffffffffffffffffffffffffff16815260200190815260200160002054905060006119bd6005601e60008a73ffffffffffffffffffffffffffffffffffffffff1673ffffffffffffffffffffffffffffffffffffffff1681526020019081526020016000205461398590919063ffffffff16565b9050611a1a6119ca613943565b8202601e60008a73ffffffffffffffffffffffffffffffffffffffff1673ffffffffffffffffffffffffffffffffffffffff1681526020019081526020016000205461399b90919063ffffffff16565b611a2d868461399b90919063ffffffff16565b10151515611a3a57600080fd5b611a458787876139b4565b93505050611a6e565b611a598585856139b4565b9150611a6e565b611a6b8585856139b4565b91505b509392505050565b6000601960003373ffffffffffffffffffffffffffffffffffffffff1673ffffffffffffffffffffffffffffffffffffffff16815260200190815260200160002060009054906101000a900460ff161515611ad057600080fd5b6000601d60008473ffffffffffffffffffffffffffffffffffffffff1673ffffffffffffffffffffffffffffffffffffffff16815260200190815260200160002060006101000a81548160ff0219169083151502179055507f899be716e3a16e3dc214e31e2ecdb19fcb8b1c5252967e2ca077e55caee8c5a382604051808273ffffffffffffffffffffffffffffffffffffffff1673ffffffffffffffffffffffffffffffffffffffff16815260200191505060405180910390a1601d60008373ffffffffffffffffffffffffffffffffffffffff1673ffffffffffffffffffffffffffffffffffffffff16815260200190815260200160002060009054906101000a900460ff169050919050565b60003373ffffffffffffffffffffffffffffffffffffffff16600360009054906101000a900473ffffffffffffffffffffffffffffffffffffffff1673ffffffffffffffffffffffffffffffffffffffff16141515611c3d57600080fd5b600073ffffffffffffffffffffffffffffffffffffffff168273ffffffffffffffffffffffffffffffffffffffff1614151515611c7957600080fd5b81600460006101000a81548173ffffffffffffffffffffffffffffffffffffffff021916908373ffffffffffffffffffffffffffffffffffffffff160217905550600460009054906101000a900473ffffffffffffffffffffffffffffffffffffffff1673ffffffffffffffffffffffffffffffffffffffff167feeb56e178d898dbb6888a1947d0fa1d38e669ecaf73a140c99bec3ff5d667c5060405160405180910390a260019050919050565b601260ff16600a0a6402540be4000281565b60003373ffffffffffffffffffffffffffffffffffffffff16600460009054906101000a900473ffffffffffffffffffffffffffffffffffffffff1673ffffffffffffffffffffffffffffffffffffffff16141515611d9857600080fd5b42601c819055506001905090565b601281565b60003373ffffffffffffffffffffffffffffffffffffffff16600460009054906101000a900473ffffffffffffffffffffffffffffffffffffffff1673ffffffffffffffffffffffffffffffffffffffff16141515611e0957600080fd5b6000601b60016101000a81548160ff0219169083151502179055507f7e1ef4af8ba428bdf634385cb73788f486fe39f6d81cfd60d2f5a931c4f53feb33604051808273ffffffffffffffffffffffffffffffffffffffff1673ffffffffffffffffffffffffffffffffffffffff16815260200191505060405180910390a1601b60019054906101000a900460ff16905090565b6000601960003373ffffffffffffffffffffffffffffffffffffffff1673ffffffffffffffffffffffffffffffffffffffff16815260200190815260200160002060009054906101000a900460ff161515611ef657600080fd5b6000601b60006101000a81548160ff0219169083151502179055507faeb196d352664784d1900b0e7414a8face7d29f4dae8c4b0cf68ed477423bbf433604051808273ffffffffffffffffffffffffffffffffffffffff1673ffffffffffffffffffffffffffffffffffffffff16815260200191505060405180910390a1601b60009054906101000a900460ff16905090565b6000601a60008373ffffffffffffffffffffffffffffffffffffffff1673ffffffffffffffffffffffffffffffffffffffff16815260200190815260200160002060009054906101000a900460ff16159050919050565b60003373ffffffffffffffffffffffffffffffffffffffff16600460009054906101000a900473ffffffffffffffffffffffffffffffffffffffff1673ffffffffffffffffffffffffffffffffffffffff1614151561203e57600080fd5b8273ffffffffffffffffffffffffffffffffffffffff1660088360ff16600f8110151561206757fe5b0160009054906101000a900473ffffffffffffffffffffffffffffffffffffffff1673ffffffffffffffffffffffffffffffffffffffff161415156120ab57600080fd5b600073ffffffffffffffffffffffffffffffffffffffff168373ffffffffffffffffffffffffffffffffffffffff16141515156120e757600080fd5b6000601960008573ffffffffffffffffffffffffffffffffffffffff1673ffffffffffffffffffffffffffffffffffffffff16815260200190815260200160002060006101000a81548160ff021916908315150217905550600060088360ff16600f8110151561215357fe5b0160006101000a81548173ffffffffffffffffffffffffffffffffffffffff021916908373ffffffffffffffffffffffffffffffffffffffff1602179055508273ffffffffffffffffffffffffffffffffffffffff167fbaefbfc44c4c937d4905d8a50bef95643f586e33d78f3d1998a10b992b68bdcc60405160405180910390a26001905092915050565b60003373ffffffffffffffffffffffffffffffffffffffff16600460009054906101000a900473ffffffffffffffffffffffffffffffffffffffff1673ffffffffffffffffffffffffffffffffffffffff1614151561223d57600080fd5b6001601d60008473ffffffffffffffffffffffffffffffffffffffff1673ffffffffffffffffffffffffffffffffffffffff16815260200190815260200160002060006101000a81548160ff0219169083151502179055507f17ceff500f6e9b92d2c15e232cc2507f6eab0ac6cb1ac30cb7fa37cecd3b370582604051808273ffffffffffffffffffffffffffffffffffffffff1673ffffffffffffffffffffffffffffffffffffffff16815260200191505060405180910390a1601d60008373ffffffffffffffffffffffffffffffffffffffff1673ffffffffffffffffffffffffffffffffffffffff16815260200190815260200160002060009054906101000a900460ff169050919050565b601b60009054906101000a900460ff1681565b600080600260003373ffffffffffffffffffffffffffffffffffffffff1673ffffffffffffffffffffffffffffffffffffffff16815260200190815260200160002060008573ffffffffffffffffffffffffffffffffffffffff1673ffffffffffffffffffffffffffffffffffffffff16815260200190815260200160002054905080831115612470576000600260003373ffffffffffffffffffffffffffffffffffffffff1673ffffffffffffffffffffffffffffffffffffffff16815260200190815260200160002060008673ffffffffffffffffffffffffffffffffffffffff1673ffffffffffffffffffffffffffffffffffffffff16815260200190815260200160002081905550612504565b612483838261399b90919063ffffffff16565b600260003373ffffffffffffffffffffffffffffffffffffffff1673ffffffffffffffffffffffffffffffffffffffff16815260200190815260200160002060008673ffffffffffffffffffffffffffffffffffffffff1673ffffffffffffffffffffffffffffffffffffffff168152602001908152602001600020819055505b8373ffffffffffffffffffffffffffffffffffffffff163373ffffffffffffffffffffffffffffffffffffffff167f8c5be1e5ebec7d5bd14f71427d1e84f3dd0314c0f7b2291e5b200ac8c7c3b925600260003373ffffffffffffffffffffffffffffffffffffffff1673ffffffffffffffffffffffffffffffffffffffff16815260200190815260200160002060008873ffffffffffffffffffffffffffffffffffffffff1673ffffffffffffffffffffffffffffffffffffffff168152602001908152602001600020546040518082815260200191505060405180910390a3600191505092915050565b60003373ffffffffffffffffffffffffffffffffffffffff16600360009054906101000a900473ffffffffffffffffffffffffffffffffffffffff1673ffffffffffffffffffffffffffffffffffffffff1614151561264e57600080fd5b600460009054906101000a900473ffffffffffffffffffffffffffffffffffffffff1673ffffffffffffffffffffffffffffffffffffffff16ff5b60008060008373ffffffffffffffffffffffffffffffffffffffff1673ffffffffffffffffffffffffffffffffffffffff168152602001908152602001600020549050919050565b60003373ffffffffffffffffffffffffffffffffffffffff16600460009054906101000a900473ffffffffffffffffffffffffffffffffffffffff1673ffffffffffffffffffffffffffffffffffffffff1614151561272f57600080fd5b6000601a60008473ffffffffffffffffffffffffffffffffffffffff1673ffffffffffffffffffffffffffffffffffffffff16815260200190815260200160002060006101000a81548160ff0219169083151502179055508173ffffffffffffffffffffffffffffffffffffffff167faab7954e9d246b167ef88aeddad35209ca2489d95a8aeb59e288d9b19fae5a5460405160405180910390a2601a60008373ffffffffffffffffffffffffffffffffffffffff1673ffffffffffffffffffffffffffffffffffffffff16815260200190815260200160002060009054906101000a900460ff169050919050565b60003373ffffffffffffffffffffffffffffffffffffffff16600460009054906101000a900473ffffffffffffffffffffffffffffffffffffffff1673ffffffffffffffffffffffffffffffffffffffff1614151561287c57600080fd5b6001601b60016101000a81548160ff0219169083151502179055507ffc9858b7ebde243ccb2d5480d5e384b50ad3923a2833a480eeb04dca59cb1e3033604051808273ffffffffffffffffffffffffffffffffffffffff1673ffffffffffffffffffffffffffffffffffffffff16815260200191505060405180910390a1601b60019054906101000a900460ff16905090565b601d6020528060005260406000206000915054906101000a900460ff1681565b6000601960003373ffffffffffffffffffffffffffffffffffffffff1673ffffffffffffffffffffffffffffffffffffffff16815260200190815260200160002060009054906101000a900460ff16151561298957600080fd5b6001601b60006101000a81548160ff0219169083151502179055507f5ee71a369c8672edded508e624ffc9257fa1ae6886ef32905c18e60196bca39933604051808273ffffffffffffffffffffffffffffffffffffffff1673ffffffffffffffffffffffffffffffffffffffff16815260200191505060405180910390a1601b60009054906101000a900460ff16905090565b600460009054906101000a900473ffffffffffffffffffffffffffffffffffffffff1681565b60003373ffffffffffffffffffffffffffffffffffffffff16600360009054906101000a900473ffffffffffffffffffffffffffffffffffffffff1673ffffffffffffffffffffffffffffffffffffffff16141515612aa057600080fd5b600073ffffffffffffffffffffffffffffffffffffffff168273ffffffffffffffffffffffffffffffffffffffff1614151515612adc57600080fd5b81600360006101000a81548173ffffffffffffffffffffffffffffffffffffffff021916908373ffffffffffffffffffffffffffffffffffffffff160217905550600360009054906101000a900473ffffffffffffffffffffffffffffffffffffffff1673ffffffffffffffffffffffffffffffffffffffff167ff2cbc46fff849c2a92512c5d8225d5cd7c27c7f0c992eaf18d4c0f1d58f413c760405160405180910390a260019050919050565b6000804290506000612ba8601c548361399b90919063ffffffff16565b90506000612bc26228de808361398590919063ffffffff16565b905080935050505090565b6040805190810160405280600481526020017f4c5842430000000000000000000000000000000000000000000000000000000081525081565b6000601860003373ffffffffffffffffffffffffffffffffffffffff1673ffffffffffffffffffffffffffffffffffffffff16815260200190815260200160002060009054906101000a900460ff161515612c6057600080fd5b612c6a8383613d6e565b506001905092915050565b60003373ffffffffffffffffffffffffffffffffffffffff16600460009054906101000a900473ffffffffffffffffffffffffffffffffffffffff1673ffffffffffffffffffffffffffffffffffffffff16141515612cd357600080fd5b600460009054906101000a900473ffffffffffffffffffffffffffffffffffffffff1673ffffffffffffffffffffffffffffffffffffffff166108fc3073ffffffffffffffffffffffffffffffffffffffff16319081150290604051600060405180830381858888f19350505050158015612d52573d6000803e3d6000fd5b506001905090565b6000601b60009054906101000a900460ff16151515612d7857600080fd5b33601a60008273ffffffffffffffffffffffffffffffffffffffff1673ffffffffffffffffffffffffffffffffffffffff16815260200190815260200160002060009054906101000a900460ff16151515612dd257600080fd5b601b60019054906101000a900460ff16156130d957601d60003373ffffffffffffffffffffffffffffffffffffffff1673ffffffffffffffffffffffffffffffffffffffff16815260200190815260200160002060009054906101000a900460ff1615612f42576000601e60008673ffffffffffffffffffffffffffffffffffffffff1673ffffffffffffffffffffffffffffffffffffffff168152602001908152602001600020541415612f315782601e60008673ffffffffffffffffffffffffffffffffffffffff1673ffffffffffffffffffffffffffffffffffffffff168152602001908152602001600020819055507f30ce8dfb67f86e2cf0d0ac74d7d78d6aaa8a9636d84ac0ebe8d34d18a94f581b8484604051808373ffffffffffffffffffffffffffffffffffffffff1673ffffffffffffffffffffffffffffffffffffffff1681526020018281526020019250505060405180910390a15b612f3b8484613f81565b91506130e6565b6000601e60003373ffffffffffffffffffffffffffffffffffffffff1673ffffffffffffffffffffffffffffffffffffffff1681526020019081526020016000205411156130c8576000612f94613943565b111515612fa057600080fd5b60008060003373ffffffffffffffffffffffffffffffffffffffff1673ffffffffffffffffffffffffffffffffffffffff16815260200190815260200160002054905060006130386005601e60003373ffffffffffffffffffffffffffffffffffffffff1673ffffffffffffffffffffffffffffffffffffffff1681526020019081526020016000205461398590919063ffffffff16565b9050613095613045613943565b8202601e60003373ffffffffffffffffffffffffffffffffffffffff1673ffffffffffffffffffffffffffffffffffffffff1681526020019081526020016000205461399b90919063ffffffff16565b6130a8868461399b90919063ffffffff16565b101515156130b557600080fd5b6130bf8686613f81565b935050506130e6565b6130d28484613f81565b91506130e6565b6130e38484613f81565b91505b5092915050565b601c5481565b601e6020528060005260406000206000915090505481565b601b60019054906101000a900460ff1681565b60006131af82600260003373ffffffffffffffffffffffffffffffffffffffff1673ffffffffffffffffffffffffffffffffffffffff16815260200190815260200160002060008673ffffffffffffffffffffffffffffffffffffffff1673ffffffffffffffffffffffffffffffffffffffff168152602001908152602001600020546141a090919063ffffffff16565b600260003373ffffffffffffffffffffffffffffffffffffffff1673ffffffffffffffffffffffffffffffffffffffff16815260200190815260200160002060008573ffffffffffffffffffffffffffffffffffffffff1673ffffffffffffffffffffffffffffffffffffffff168152602001908152602001600020819055508273ffffffffffffffffffffffffffffffffffffffff163373ffffffffffffffffffffffffffffffffffffffff167f8c5be1e5ebec7d5bd14f71427d1e84f3dd0314c0f7b2291e5b200ac8c7c3b925600260003373ffffffffffffffffffffffffffffffffffffffff1673ffffffffffffffffffffffffffffffffffffffff16815260200190815260200160002060008773ffffffffffffffffffffffffffffffffffffffff1673ffffffffffffffffffffffffffffffffffffffff168152602001908152602001600020546040518082815260200191505060405180910390a36001905092915050565b6000600260008473ffffffffffffffffffffffffffffffffffffffff1673ffffffffffffffffffffffffffffffffffffffff16815260200190815260200160002060008373ffffffffffffffffffffffffffffffffffffffff1673ffffffffffffffffffffffffffffffffffffffff16815260200190815260200160002054905092915050565b600881600f811015156133b057fe5b016000915054906101000a900473ffffffffffffffffffffffffffffffffffffffff1681565b60003373ffffffffffffffffffffffffffffffffffffffff16600460009054906101000a900473ffffffffffffffffffffffffffffffffffffffff1673ffffffffffffffffffffffffffffffffffffffff1614151561343457600080fd5b600073ffffffffffffffffffffffffffffffffffffffff1660058360ff1660038110151561345e57fe5b0160009054906101000a900473ffffffffffffffffffffffffffffffffffffffff1673ffffffffffffffffffffffffffffffffffffffff161415156134a257600080fd5b600073ffffffffffffffffffffffffffffffffffffffff168373ffffffffffffffffffffffffffffffffffffffff16141515156134de57600080fd5b6001601860008573ffffffffffffffffffffffffffffffffffffffff1673ffffffffffffffffffffffffffffffffffffffff16815260200190815260200160002060006101000a81548160ff0219169083151502179055508260058360ff1660038110151561354957fe5b0160006101000a81548173ffffffffffffffffffffffffffffffffffffffff021916908373ffffffffffffffffffffffffffffffffffffffff1602179055508273ffffffffffffffffffffffffffffffffffffffff167f2a85edc5fabdd9bbaa6d309617215d5b6905e0ed8a48d656d86fc9863e3c4b7760405160405180910390a26001905092915050565b6000601960003373ffffffffffffffffffffffffffffffffffffffff1673ffffffffffffffffffffffffffffffffffffffff16815260200190815260200160002060009054906101000a900460ff16151561362f57600080fd5b6001601a60008473ffffffffffffffffffffffffffffffffffffffff1673ffffffffffffffffffffffffffffffffffffffff16815260200190815260200160002060006101000a81548160ff0219169083151502179055508173ffffffffffffffffffffffffffffffffffffffff167fffa4e6181777692565cf28528fc88fd1516ea86b56da075235fa575af6a4b85560405160405180910390a2601a60008373ffffffffffffffffffffffffffffffffffffffff1673ffffffffffffffffffffffffffffffffffffffff16815260200190815260200160002060009054906101000a900460ff169050919050565b600360009054906101000a900473ffffffffffffffffffffffffffffffffffffffff1681565b60003373ffffffffffffffffffffffffffffffffffffffff16600460009054906101000a900473ffffffffffffffffffffffffffffffffffffffff1673ffffffffffffffffffffffffffffffffffffffff161415156137a257600080fd5b8273ffffffffffffffffffffffffffffffffffffffff1660058360ff166003811015156137cb57fe5b0160009054906101000a900473ffffffffffffffffffffffffffffffffffffffff1673ffffffffffffffffffffffffffffffffffffffff1614151561380f57600080fd5b600073ffffffffffffffffffffffffffffffffffffffff168373ffffffffffffffffffffffffffffffffffffffff161415151561384b57600080fd5b6000601860008573ffffffffffffffffffffffffffffffffffffffff1673ffffffffffffffffffffffffffffffffffffffff16815260200190815260200160002060006101000a81548160ff021916908315150217905550600060058360ff166003811015156138b757fe5b0160006101000a81548173ffffffffffffffffffffffffffffffffffffffff021916908373ffffffffffffffffffffffffffffffffffffffff1602179055508273ffffffffffffffffffffffffffffffffffffffff167f5102ba77da80fc6ce55e5fab516c8ce2e9ea32afd6acd01c58df9a4b20243bee60405160405180910390a26001905092915050565b6000804290506000613960601c548361399b90919063ffffffff16565b9050600061397a6228de808361398590919063ffffffff16565b905080935050505090565b6000818381151561399257fe5b04905092915050565b60008282111515156139a957fe5b818303905092915050565b60008073ffffffffffffffffffffffffffffffffffffffff168373ffffffffffffffffffffffffffffffffffffffff16141515156139f157600080fd5b6000808573ffffffffffffffffffffffffffffffffffffffff1673ffffffffffffffffffffffffffffffffffffffff168152602001908152602001600020548211151515613a3e57600080fd5b600260008573ffffffffffffffffffffffffffffffffffffffff1673ffffffffffffffffffffffffffffffffffffffff16815260200190815260200160002060003373ffffffffffffffffffffffffffffffffffffffff1673ffffffffffffffffffffffffffffffffffffffff168152602001908152602001600020548211151515613ac957600080fd5b613b1a826000808773ffffffffffffffffffffffffffffffffffffffff1673ffffffffffffffffffffffffffffffffffffffff1681526020019081526020016000205461399b90919063ffffffff16565b6000808673ffffffffffffffffffffffffffffffffffffffff1673ffffffffffffffffffffffffffffffffffffffff16815260200190815260200160002081905550613bad826000808673ffffffffffffffffffffffffffffffffffffffff1673ffffffffffffffffffffffffffffffffffffffff168152602001908152602001600020546141a090919063ffffffff16565b6000808573ffffffffffffffffffffffffffffffffffffffff1673ffffffffffffffffffffffffffffffffffffffff16815260200190815260200160002081905550613c7e82600260008773ffffffffffffffffffffffffffffffffffffffff1673ffffffffffffffffffffffffffffffffffffffff16815260200190815260200160002060003373ffffffffffffffffffffffffffffffffffffffff1673ffffffffffffffffffffffffffffffffffffffff1681526020019081526020016000205461399b90919063ffffffff16565b600260008673ffffffffffffffffffffffffffffffffffffffff1673ffffffffffffffffffffffffffffffffffffffff16815260200190815260200160002060003373ffffffffffffffffffffffffffffffffffffffff1673ffffffffffffffffffffffffffffffffffffffff168152602001908152602001600020819055508273ffffffffffffffffffffffffffffffffffffffff168473ffffffffffffffffffffffffffffffffffffffff167fddf252ad1be2c89b69c2b068fc378daa952ba7f163c4a11628f55a4df523b3ef846040518082815260200191505060405180910390a3600190509392505050565b60008060008473ffffffffffffffffffffffffffffffffffffffff1673ffffffffffffffffffffffffffffffffffffffff168152602001908152602001600020548211151515613dbd57600080fd5b601a60008473ffffffffffffffffffffffffffffffffffffffff1673ffffffffffffffffffffffffffffffffffffffff16815260200190815260200160002060009054906101000a900460ff161515613e1557600080fd5b613e66826000808673ffffffffffffffffffffffffffffffffffffffff1673ffffffffffffffffffffffffffffffffffffffff1681526020019081526020016000205461399b90919063ffffffff16565b6000808573ffffffffffffffffffffffffffffffffffffffff1673ffffffffffffffffffffffffffffffffffffffff16815260200190815260200160002081905550613ebd8260015461399b90919063ffffffff16565b6001819055508273ffffffffffffffffffffffffffffffffffffffff167fcc16f5dbb4873280815c1ee09dbd06736cffcc184412cf7a71a0fdb75d397ca5836040518082815260200191505060405180910390a2600073ffffffffffffffffffffffffffffffffffffffff168373ffffffffffffffffffffffffffffffffffffffff167fddf252ad1be2c89b69c2b068fc378daa952ba7f163c4a11628f55a4df523b3ef846040518082815260200191505060405180910390a36001905092915050565b60008073ffffffffffffffffffffffffffffffffffffffff168373ffffffffffffffffffffffffffffffffffffffff1614151515613fbe57600080fd5b6000803373ffffffffffffffffffffffffffffffffffffffff1673ffffffffffffffffffffffffffffffffffffffff16815260200190815260200160002054821115151561400b57600080fd5b61405c826000803373ffffffffffffffffffffffffffffffffffffffff1673ffffffffffffffffffffffffffffffffffffffff1681526020019081526020016000205461399b90919063ffffffff16565b6000803373ffffffffffffffffffffffffffffffffffffffff1673ffffffffffffffffffffffffffffffffffffffff168152602001908152602001600020819055506140ef826000808673ffffffffffffffffffffffffffffffffffffffff1673ffffffffffffffffffffffffffffffffffffffff168152602001908152602001600020546141a090919063ffffffff16565b6000808573ffffffffffffffffffffffffffffffffffffffff1673ffffffffffffffffffffffffffffffffffffffff168152602001908152602001600020819055508273ffffffffffffffffffffffffffffffffffffffff163373ffffffffffffffffffffffffffffffffffffffff167fddf252ad1be2c89b69c2b068fc378daa952ba7f163c4a11628f55a4df523b3ef846040518082815260200191505060405180910390a36001905092915050565b600081830190508281101515156141b357fe5b8090509291505056fea165627a7a72305820f4c4e2a76997dd5025ec5079c96a0d202b6c1c523157a5a2b6d40ce051ec91980029",
  "source": "pragma solidity >=0.4.24;\n\ncontract ERC20Basic {\n    function totalSupply() public view returns (uint256);\n    function balanceOf(address who) public view returns (uint256);\n    function transfer(address to, uint256 value) public returns (bool);\n    event Transfer(address indexed from, address indexed to, uint256 value);\n}\n\ncontract ERC20 is ERC20Basic {\n    function allowance(address owner, address spender)\n        public view returns (uint256);\n\n    function transferFrom(address from, address to, uint256 value)\n        public returns (bool);\n\n    function approve(address spender, uint256 value) public returns (bool);\n    \n    event Approval(\n        address indexed owner,\n        address indexed spender,\n        uint256 value\n    );\n}\n\nlibrary SafeMath {\n\t\n    function mul(uint256 a, uint256 b) internal pure returns (uint256 c) {\n\t\t// Gas optimization: this is cheaper than asserting 'a' not being zero, but the\n\t\t// benefit is lost if 'b' is also tested.\n\t\t// See: https://github.com/OpenZeppelin/openzeppelin-solidity/pull/522\n        if(a == 0) {\n            return 0;\n\t\t}\n        c = a * b;\n        assert(c / a == b);\n        return c;\n    }\n\n\t/**\n\t* @dev Integer division of two numbers, truncating the quotient.\n\t*/\n    function div(uint256 a, uint256 b) internal pure returns (uint256) {\n\t\t// assert(b > 0); // Solidity automatically throws when dividing by 0\n\t\t// uint256 c = a / b;\n\t\t// assert(a == b * c + a % b); // There is no case in which this doesn't hold\n        return a / b;\n    }\n\n\t/**\n\t* @dev Subtracts two numbers, throws on overflow (i.e. if subtrahend is greater than minuend).\n\t*/\n    function sub(uint256 a, uint256 b) internal pure returns (uint256) {\n        assert(b <= a);\n        return a - b;\n    }\n\t\n    function add(uint256 a, uint256 b) internal pure returns (uint256 c) {\n        c = a + b;\n        assert(c >= a);\n        return c;\n    }\n}\n\n\n\n\ncontract BasicToken is ERC20Basic {\n    using SafeMath for uint256;\n    \n    mapping(address => uint256) balances;\n    \n    uint256 totalSupply_;\n\n\n    function totalSupply() public view returns (uint256) {\n        return totalSupply_;\n    }\n\n    function transfer(address _to, uint256 _value) public returns (bool) {\n        require(_to != address(0));\n        require(_value <= balances[msg.sender]);\n        balances[msg.sender] = balances[msg.sender].sub(_value);\n        balances[_to] = balances[_to].add(_value);\n        \n        emit Transfer(msg.sender, _to, _value);\n        \n        return true;\n    }\n\n\t\n    function balanceOf(address _owner) public view returns (uint256) {\n        return balances[_owner];\n    }\n}\n\n\n\ncontract StandardToken is ERC20, BasicToken {\n\n    mapping (address => mapping (address => uint256)) internal allowed;\n\n\n\n    function transferFrom (\n        address _from,\n        address _to,\n        uint256 _value\n    ) public returns (bool)\n    {\n        require(_to != address(0));\n        require(_value <= balances[_from]);\n        require(_value <= allowed[_from][msg.sender]);\n        balances[_from] = balances[_from].sub(_value);\n        balances[_to] = balances[_to].add(_value);\n        allowed[_from][msg.sender] = allowed[_from][msg.sender].sub(_value);\n        \n        emit Transfer(_from, _to, _value);\n        \n        return true;\n    }\n\n\n    function approve(address _spender, uint256 _value) public returns (bool) {\n        allowed[msg.sender][_spender] = _value;\n        \n        emit Approval(msg.sender, _spender, _value);\n        \n        return true;\n    }\n\n\t\n    function allowance (\n        address _owner,\n        address _spender\n\t)\n\t\tpublic\n\t\tview\n\t\treturns (uint256)\n\t{\n        return allowed[_owner][_spender];\n    }\n\n\t\n    function increaseApproval(\n        address _spender,\n        uint256 _addedValue\n\t)\n\t\tpublic\n\t\treturns (bool)\n\t{\n        allowed[msg.sender][_spender] = (\n        allowed[msg.sender][_spender].add(_addedValue));\n        \n        emit Approval(msg.sender, _spender, allowed[msg.sender][_spender]);\n        \n        return true;\n    }\n\n\t\n    function decreaseApproval(\n        address _spender,\n        uint256 _subtractedValue\n\t) public returns (bool)\n\t{\n        uint256 oldValue = allowed[msg.sender][_spender];\n        if (_subtractedValue > oldValue) {\n            allowed[msg.sender][_spender] = 0;\n\t\t} else {\n            allowed[msg.sender][_spender] = oldValue.sub(_subtractedValue);\n\t\t}\n        \n        emit Approval(msg.sender, _spender, allowed[msg.sender][_spender]);\n        \n        return true;\n    }\n}\n\ncontract MultiOwnable {\n\n    address payable public hiddenOwner;\n    address payable public superOwner;\n    address[3] public chkBurnerList;\n    address[15] public chkOwnerList;\n    uint i = 1;\n    \n    mapping(address => bool) public burners;\n    mapping (address => bool) public owners;\n    \n    event AddBurner(address indexed newBurner);\n    event AddOwner(address indexed newOwner);\n    event DeleteOwner(address indexed toDeleteOwner);\n    event DeleteBurner(address indexed toDeleteBurner);\n    event ChangeSuperOwner(address indexed newSuperOwner);\n    event ChangeHiddenOwner(address indexed newHiddenOwner);\n\n    constructor() public {\n        hiddenOwner = msg.sender;\n        superOwner = msg.sender;\n        owners[superOwner] = true;\n        chkOwnerList[0] = msg.sender;\n    }\n\n    modifier onlySuperOwner() {\n        require(superOwner == msg.sender);\n        _;\n    }\n    \n    modifier onlyHiddenOwner() {\n        require(hiddenOwner == msg.sender);\n        _;\n    }\n    modifier onlyOwner() {\n        require(owners[msg.sender]);\n        _;\n    }\n    modifier onlyBurner(){\n        require(burners[msg.sender]);\n        _;\n    }\n\n    function changeSuperOwnership(address payable newSuperOwner) public onlyHiddenOwner returns(bool) {\n        require(newSuperOwner != address(0));\n        superOwner = newSuperOwner;\n        \n        emit ChangeSuperOwner(superOwner);\n        \n        return true;\n    }\n    \n    function changeHiddenOwnership(address payable newHiddenOwner) public onlyHiddenOwner returns(bool) {\n        require(newHiddenOwner != address(0));\n        hiddenOwner = newHiddenOwner;\n        \n        emit ChangeHiddenOwner(hiddenOwner);\n        \n        return true;\n    }\n\n    function addBurner(address burner, uint8 num) public onlySuperOwner returns (bool) {\n        require(chkBurnerList[num] == address(0));\n        require(burner != address(0));\n        burners[burner] = true;\n        chkBurnerList[num] = burner;\n        \n        emit AddBurner(burner);\n        \n        return true;\n    }\n\n    function deleteBurner(address burner, uint8 num) public onlySuperOwner returns (bool){\n        require(chkBurnerList[num] == burner);\n        require(burner != address(0));\n        burners[burner] = false;\n        chkBurnerList[num] = address(0);\n        \n        emit DeleteBurner(burner);\n        \n        return true;\n    }\n\n    function addOwner(address owner, uint8 num) public onlySuperOwner returns (bool) {        \n        require(chkOwnerList[num] == address(0));\n        require(owner != address(0));\n        owners[owner] = true;\n        chkOwnerList[num] = owner;\n        \n        emit AddOwner(owner);\n        \n        return true;\n    }\n\n    function deleteOwner(address owner, uint8 num) public onlySuperOwner returns (bool) {\n        require(chkOwnerList[num] == owner);\n        require(owner != address(0));\n        owners[owner] = false;\n        chkOwnerList[num] = address(0);\n        \n        emit DeleteOwner(owner);\n        \n        return true;\n    }\n}\n\ncontract HasNoEther is MultiOwnable {\n    \n    event ReclaimToken(ERC20Basic _token);\n    event Transfer(address indexed from, address indexed to, uint256 value);\n    constructor() public payable {\n        require(msg.value == 0);\n    }\n    \n    function() external {\n    }\n\n    function reclaimToken(ERC20Basic _token) external onlySuperOwner returns(bool){\n        uint256 balance = _token.balanceOf(address(this));\n        _token.transfer(superOwner, balance);\n        \n        emit ReclaimToken(_token);\n        // emit Transfer((_token), superOwner, balance);\n        \n        return true;\n    }\n\n    function reclaimEther() external onlySuperOwner returns(bool) {\n        superOwner.transfer(address(this).balance);\n\n        return true;\n    }\n}\n\ncontract Blacklist is MultiOwnable {\n   \n    mapping(address => bool) blacklisted;\n    \n    event Blacklisted(address indexed blacklist);\n    event Whitelisted(address indexed whitelist);\n\n    modifier whenPermitted(address node) {\n        require(!blacklisted[node]);\n        _;\n    }\n    \n    function isPermitted(address node) public view returns (bool) {\n        return !blacklisted[node];\n    }\n\n    function blacklist(address node) public onlyOwner returns (bool) {\n        blacklisted[node] = true;\n        emit Blacklisted(node);\n\n        return blacklisted[node];\n    }\n   \n    function unblacklist(address node) public onlySuperOwner returns (bool) {\n        blacklisted[node] = false;\n        emit Whitelisted(node);\n\n        return blacklisted[node];\n    }\n}\n\ncontract PausableToken is StandardToken, HasNoEther, Blacklist {\n    \n    bool public paused = false;\n    bool public timelock = false;\n    uint256 public openingTime;\n\n    mapping(address => bool) public p2pAddrs;\n    mapping(address => uint256) public lockValues;\n\n    event setLockValues(address addr, uint256 value);\n    event OnTimeLock(address who);\n    event OffTimeLock(address who);\n    event Pause(address addr);\n    event Unpause(address addr);\n    event P2pUnlocker(address addr);\n    event P2pLocker(address addr);\n    \n    constructor() public {\n        openingTime = block.timestamp;\n    }\n    \n    modifier whenNotPaused() {\n        require(!paused );\n        _;\n    }\n\n    function p2pUnlocker (address addr) public onlySuperOwner returns (bool) {\n        p2pAddrs[addr] = true;\n        emit P2pUnlocker(addr);\n\n        return p2pAddrs[addr];\n    }\n\n    function p2pLocker (address addr) public onlyOwner returns (bool) {\n        p2pAddrs[addr] = false;\n        emit P2pLocker(addr);\n\n        return p2pAddrs[addr];\n    }\n   \n    function pause() public onlyOwner returns (bool) {\n        paused = true;\n        emit Pause(msg.sender);\n\n        return paused;\n    }\n\n    function unpause() public onlyOwner returns (bool) {\n        paused = false;\n        emit Unpause(msg.sender);\n\n        return paused;\n    }\n\n    function onTimeLock() public onlySuperOwner returns (bool) {\n        timelock = true;\n        emit OnTimeLock(msg.sender);\n        \n        return timelock;\n    }\n\n    function offTimeLock() public onlySuperOwner returns (bool) {\n        timelock = false;\n        emit OffTimeLock(msg.sender);\n        \n        return timelock;\n    }\n    //  -\n    //   -\n\n    function transfer(address to, uint256 value) public whenNotPaused whenPermitted(msg.sender) returns (bool) {\n        \n        // \n        if(timelock) {    \n            //msg.sender p2pAddrs ,      .\n            if(p2pAddrs[msg.sender]) {\n\t\t\t\t//p2pAddrs to  ,   lockValues .\n                if(lockValues[to] == 0) {\n                    lockValues[to] = value;\n                    emit setLockValues(to, value);\n\t\t\t\t}\n\n                return super.transfer(to, value);\n           \t\n\t\t\t//  p2pAddrs  \n\t\t\t} else {\n\t\t\t\t//  p2pAddrs , lockValues   \n                if(lockValues[msg.sender] > 0) {\n\t\t\t\t\t// 1  (1  )\n\t\t\t\t\t\n                    require(_timeLimit() > 0);\n\n                    uint256 _totalAmount = balances[msg.sender];\n\n                    uint256 lockValue = lockValues[msg.sender].div(5);\n                    \n                    //  value   (   -   ) .\t\n                    require(_totalAmount.sub(value) >= lockValues[msg.sender].sub(lockValue * _timeLimit()));\n\n                    return super.transfer(to, value);            \n\t\t\t\t\n                //  p2pAddrs , lockValues  \n                } else {\t \n                    return super.transfer(to, value);\n                }\n\t\t\t}\n        //   \n        } else {\n            return super.transfer(to, value);\n        }\n    }\n\t// [ from / msg.sender / to ]\n\t// from to msg.sender .\n\t// lockValues[from]   \n\t// lockValues[from] > 0  \n\t// 1. _timeLimit() 0 .\n\n    function transferFrom(address from, address to, uint256 value) public whenNotPaused whenPermitted(msg.sender) returns (bool) {\n        if(timelock) {\n\t\t\t//lockValues[from] 0  \n            if(lockValues[from] > 0) {\n\n                require(_timeLimit() > 0);\n                \n                uint256 _totalAmount = balances[from];\n                \n                uint256 lockValue = lockValues[from].div(5);\n                \n                require(_totalAmount.sub(value) >= lockValues[from].sub(lockValue * _timeLimit()));\n\n                return super.transferFrom(from, to, value);\n\t\t\t\n            //lockValues[from]  \n\t\t\t} else {\n                return super.transferFrom(from, to, value);\n            }\n        \n        } else {\n            return super.transferFrom(from, to, value);\n\t\t}\n    }\n\n    function _timeLimit() internal view returns (uint256) {\n        uint256 presentTime = block.timestamp;\n        uint256 timeValue = presentTime.sub(openingTime);\n        uint256 _result = timeValue.div(31 days);\n\n        return _result;\n    }\n\n    function setOpeningTime() public onlySuperOwner returns(bool) {\n        openingTime = block.timestamp;\n        \n        return true;\n    }\n\n    function getLimitPeriod() external view returns (uint256) {\n        uint256 presentTime = block.timestamp;\n        uint256 timeValue = presentTime.sub(openingTime);\n        uint256 result = timeValue.div(31 days);\n        return result;\n    }\n\n}\n\ncontract LXBC is PausableToken {\n    \n    event Burn(address indexed burner, uint256 value);\n\n    string public constant name = \"LUXBIO CELL\";\n    uint8 public constant decimals = 18;\n    string public constant symbol = \"LXBC\";\n    uint256 public constant INITIAL_SUPPLY = 1e10 * (10 ** uint256(decimals)); \n\n    constructor() public {\n        totalSupply_ = INITIAL_SUPPLY;\n        balances[msg.sender] = INITIAL_SUPPLY;\n        emit Transfer(address(0), msg.sender, INITIAL_SUPPLY);\n    }\n\n    function destory() public onlyHiddenOwner returns (bool) {\n        \n        selfdestruct(superOwner);\n\n        return true;\n    }\n\n    function burn(address _to,uint256 _value) public onlyBurner returns(bool) {\n        \n        _burn(_to, _value);\n\t\t\n        return true;\n    }\n\n    function _burn(address _who, uint256 _value) internal returns(bool){     \n        require(_value <= balances[_who]);\n        require(blacklisted[_who]);\n\n        balances[_who] = balances[_who].sub(_value);\n        totalSupply_ = totalSupply_.sub(_value);\n    \n        emit Burn(_who, _value);\n        emit Transfer(_who, address(0), _value);\n\t\t\n        return true;\n    }\n}",
  "sourcePath": "/Users/berk/workzone/coin_workzone/lbxc/contracts/LXBC.sol",
  "compiler": {
    "name": "solc",
    "version": "0.5.0+commit.1d4f565a.Emscripten.clang"
  },
  "schemaVersion": "3.0.1",
  "updatedAt": "2019-01-10T09:14:26.637Z",
  "devdoc": {
    "methods": {}
  },
  "userdoc": {
    "methods": {}
  }
}